:020000040000FA
:0600000061EF39F012006F
:020006001200E6
:06000800F6EF1FF01200EC
:02000E001200DE
:020010000100ED
:0100120000ED
:040013000000004D9C
:0600180037EF1AF01200A0
:02001E000700D9
:1000200013000000F904000004000000A6730000A3
:10003000870700004000000085730000D80400001E
:100040002100000052730000CA06000033000000C7
:1000500012000000FF000000010000000B73000010
:10006000000700004700000010000000FD00000035
:04007000020000008A
:0C007400F4EC0CF03AEC0DF0EE6AEE6AD1
:10008000EE6AEE6A6DEC0CF0EE6AEE6AEE6AEE6A0B
:10009000A9EC09F0010EEE6E230EEE6E450EEE6E2B
:1000A000670EEE6EA9EC09F0040EEBEC0AF0890E77
:1000B000EE6EAB0EEE6ECD0EEE6EEF0EEE6EA9ECAA
:1000C00009F0080EEBEC0AF0FE0EEE6EDC0EEE6EA2
:1000D000BA0EEE6E980EEE6EA9EC09F00C0EEBEC7B
:1000E0000AF0760EEE6E540EEE6E320EEE6E100EBE
:1000F000EE6EE552E7CFD9FF1200F4EC0CF0080EDB
:10010000E126030E046E6DEC0CF01FEC0BF003E027
:100110003FEC0BF0FDE13F0E001679EC0BF0AEEC7E
:100120000CF0F90EDBCF04F0FA0EDBCF05F0066A17
:10013000076A05AE02D006680768030E1F0B07E0CA
:10014000D8900436053606360736E806F9E16DEC38
:100150000CF00450EF26EECF00F00550EF22EECF6A
:1001600001F00650EF22EECF02F00750EF22EECF63
:1001700003F0F90EDBCF08F0FA0EDBCF09F00A6AC4
:100180000B6A09AE02D00A680B68030E1F0B03E06E
:1001900050EC0BF0FDE10850005C095001580A508A
:1001A00002580B50035806E23AEC0DF0EE2AEE220C
:1001B000EE22EE2257EC0BF0026A036A01AE02D087
:1001C000026803681D0E3FEC0BF0FDE13AEC0DF008
:1001D000E7EC0CF0400E046E056A066A076AD9CF98
:1001E000E9FF25EC0BF0EE500758060E00C0DBFFD0
:1001F000070E01C0DBFF57EC0BF011EC0DF00150C6
:100200000318E8AE02D0033404D00250005C03505F
:1002100001586AE3060EDBCFE6FF070EDBCFE6FFF1
:1002200013EC0BF0F0EC0CF0E9CF02F0EACF03F0A6
:10023000DB50E924006E010EDB50EA206FEC0BF07E
:1002400030EC2FF0046E060EE15E0450F0EC0CF082
:100250000AEC0BF0A9EC09F0E9CF02F0EACF03F0C9
:100260002EEC0BF0060EDBCF28F0070EDBCF29F0CB
:10027000040E28C0DBFF050E29C0DBFF3F0EE76E32
:10028000D7EC0CF0E7500026000E0122D0EC0CF069
:1002900001500318E8AE02D0033404D00250005CD1
:1002A000035001581EE2040EDBCF02F0050EDBCF37
:1002B00003F0FB0EDB500224006EFC0EDB5003202B
:1002C0006FEC0BF0A9EC09F0E9CF04F0EACF05F0F0
:1002D0002EEC0BF02DEC0DF0400EEE26000EED2274
:1002E000CDD718EC0DF004D0040EDB6A050EDB6AE6
:1002F000D0EC0CF0040EDB50025C006E050EDB50FF
:1003000003586FEC0BF046EC0BF0046EFC0EDB5068
:100310000720056E04C0E6FFE66EF0EC0CF0E9CFB6
:100320000AF0EACF0BF0DB50E924086E010EDB5037
:10033000EA20096E08C0E6FFE66E30EC2FF00C6E86
:10034000060EE15E0C50080EE15C02E2E16AE55245
:100350001AEF0BF064EC0BF0080E39EC0BF0100EFA
:10036000EBEC0AF00AEC0BF0D9CFE6FFDACFE6FFB0
:100370005EEC0BF0030E046E1FEC0DF0100EEBECB8
:100380000AF01FEC0BF003E03FEC0BF0FDE13F0E39
:10039000001679EC0BF05DEC0CF0380EEE5C000E04
:1003A000EE58000EEE58000EEE580DE2380E046EB8
:1003B000056A066A076A36EC0DF025EC0BF0026E52
:1003C000EE50075813D0780E086E096A0A6A0B6A55
:1003D00036EC0DF07EEC0DF0085C006EEE50095826
:1003E000016EEE500A58026EEE500B58036E7AEC16
:1003F0000CF00C0EDBCFE6FF0D0EDBCFE6FF870E19
:10040000E66E070EE66E13EC0BF068EC0BF0080ED0
:10041000E66EE66AD9CFE6FFDACFE6FF13EC0BF023
:1004200068EC0BF0100E39EC0BF00AEC0BF0FD0E43
:10043000DBCFE6FFFE0EDBCFE6FF5EEC0BF0100E2F
:10044000E15C02E2E16AE5521AEF0BF064EC0BF0BA
:10045000A9EC09F0EECFDFFF010EEECFDBFF020EBD
:10046000EECFDBFF030EEECFDBFF040E4FEC0CF004
:10047000040EEECFDBFF050EEECFDBFF060EEECF58
:10048000DBFF070EEECFDBFF080E4FEC0CF0080E83
:10049000EECFDBFF090EEECFDBFF0A0EEECFDBFF68
:1004A0000B0EEECFDBFF0C0E4FEC0CF00C0EEECF74
:1004B000DBFF0D0EEECFDBFF0E0EEECFDBFF0F0EE0
:1004C000EECFDBFF400EE66EE66AE66AE66A13EC04
:1004D0000BF0470EE66E070EE66E1FEC08F0006E9E
:1004E000080EE15E0050C3EC0BF00AEC0AF0780E47
:1004F0000026A40E01226A0E0222D70EF9EC0CF09F
:1005000003E04FEC09F0FDE121EC09F0190E3EEC9F
:1005100009F0FDE17DEC0BF017EC0AF0560E002619
:10052000B70E0122C70E0222E80E6BEC0DF003E0BD
:100530004FEC09F0FDE131EC09F0140E3EEC09F04E
:10054000FDE198EC0BF024EC0AF0DB0E0026700EB7
:100550000122200E0222240E3EEC0DF003E04FECAF
:1005600009F0FDE114EC09F00F0E3EEC09F0FDE19D
:10057000B0EC0BF031EC0AF0EE0E0026CE0E0122AC
:10058000BD0E0222C10E6FEC0DF003E04FEC09F03E
:10059000FDE124EC09F00A0E3EEC09F0FDE173ECFC
:1005A0000DF03EEC0AF0AF0E00260F0E01227C0E7D
:1005B0000222F50EF9EC0CF003E04FEC09F0FDE13E
:1005C00021EC09F0190E3EEC09F0FDE17DEC0BF099
:1005D0004BEC0AF02A0E0026C60E0122870E0222DC
:1005E000470E6BEC0DF003E04FEC09F0FDE131EC50
:1005F00009F0140E3EEC09F0FDE198EC0BF058EC1C
:100600000AF0130E0026460E0122300E0222A80E1A
:100610003EEC0DF003E04FEC09F0FDE114EC09F0C5
:100620000F0E3EEC09F0FDE1B0EC0BF065EC0AF0CA
:10063000002A950E0122460E0BEC0DF0160E1F0B34
:1006400003E04FEC09F0FDE124EC09F00A0E3EEC6A
:1006500009F0FDE173EC0DF072EC0AF0D80E002603
:10066000980E0122800E0222690EF9EC0CF003E0D4
:100670004FEC09F0FDE121EC09F0190E3EEC09F018
:10068000FDE17DEC0BF07FEC0AF0AF0E0026F70EDB
:100690000122440E02228B0E6BEC0DF003E04FECB6
:1006A00009F0FDE131EC09F0140E3EEC09F0FDE13A
:1006B00098EC0BF08CEC0AF0B10E00265B0E0122D8
:1006C000FF0E02223EEC0DF003E04FEC09F0FDE1DD
:1006D00014EC09F00F0E3EEC09F0FDE1B0EC0BF06C
:1006E00099EC0AF0BE0E0026D70E01225C0E022203
:1006F000890E6FEC0DF003E04FEC09F0FDE124EC06
:1007000009F00A0E3EEC09F0FDE173EC0DF0A6ECE9
:100710000AF0220E0026110E0122900E02226B0E0C
:10072000F9EC0CF003E04FEC09F0FDE121EC09F0ED
:10073000190E3EEC09F0FDE17DEC0BF0B3EC0AF094
:10074000930E0026710E0122980E74EC0BF00C0F24
:10075000EEEC08F070EC09F00C0E1F0B03E04FEC10
:1007600009F0FDE131EC09F0140E3EEC09F0FDE179
:1007700098EC0BF0C0EC0AF08E0E0026430E01221E
:10078000790E0222A60E3EEC0DF003E04FEC09F0CC
:10079000FDE114EC09F00F0E3EEC09F0FDE1B0ECC8
:1007A0000BF0CDEC0AF0210E0026080E0122B40E4B
:1007B0000222490E6FEC0DF003E04FEC09F0FDE171
:1007C00024EC09F00A0E3EEC09F0FDE1E4EC0BF03C
:1007D00017EC0AF0620E0026250E01221E0E0222E0
:1007E000F60EFDEC0CF003E04FEC09F0FDE121EC1E
:1007F00009F01B0E3EEC09F0FDE100EC0CF058ECAA
:100800000AF0400E0026B30E0122400E0222C00E56
:1008100042EC0DF003E04FEC09F0FDE131EC09F0A2
:10082000170E3EEC09F0FDE1D7EC0BF099EC0AF065
:10083000510E00265A0E01225E0E0222260E46ECB2
:100840000DF003E04FEC09F0FDE114EC09F0120E9D
:100850003EEC09F0FDE1ECEC0BF00AEC0AF0AA0E1C
:100860000026C70E0122B60E0222E90E4AEC0DF058
:1008700003E04FEC09F0FDE124EC09F00C0E3EEC36
:1008800009F0FDE1E4EC0BF04BEC0AF05D0E002604
:10089000100E01222F0E0222D60EFDEC0CF003E00A
:1008A0004FEC09F0FDE121EC09F01B0E3EEC09F0E4
:1008B000FDE100EC0CF08CEC0AF0530E0026140E57
:1008C0000122440E0222020E42EC0DF003E04FEC36
:1008D00009F0FDE131EC09F0170E3EEC09F0FDE105
:1008E000D7EC0BF0CDEC0AF0810E0026E60E0122CB
:1008F000A10E0222D80E46EC0DF003E04FEC09F0F9
:10090000FDE114EC09F0120E3EEC09F0FDE1ECEC17
:100910000BF03EEC0AF0C80E0026FB0E0122D30EAF
:100920000222E70E4AEC0DF003E04FEC09F0FDE186
:1009300024EC09F00C0E3EEC09F0FDE1E4EC0BF0C8
:100940007FEC0AF0E60E0026CD0E0122E10E022217
:10095000210EFDEC0CF003E04FEC09F0FDE121EC81
:1009600009F01B0E3EEC09F0FDE100EC0CF0C0ECD0
:100970000AF0D60E0026070E0122370E0222C30E01
:1009800042EC0DF003E04FEC09F0FDE131EC09F031
:10099000170E3EEC09F0FDE1D7EC0BF031EC0AF05C
:1009A000870E00260D0E0122D50E0222F40E46EC13
:1009B0000DF003E04FEC09F0FDE114EC09F0120E2C
:1009C0003EEC09F0FDE1ECEC0BF072EC0AF0ED0E00
:1009D0000026140E01225A0E0222450E4AEC0DF09A
:1009E00003E04FEC09F0FDE124EC09F00C0E3EECC5
:1009F00009F0FDE1E4EC0BF0B3EC0AF0050E002683
:100A0000E90E0122E30E0222A90EFDEC0CF003E038
:100A10004FEC09F0FDE121EC09F01B0E3EEC09F072
:100A2000FDE100EC0CF024EC0AF0F80E0026A30E19
:100A30000122EF0E0222FC0E42EC0DF003E04FEC1F
:100A400009F0FDE131EC09F0170E3EEC09F0FDE193
:100A5000D7EC0BF065EC0AF0D90E0026020E01224D
:100A60006F0E0222670E46EC0DF003E04FEC09F02A
:100A7000FDE1DADB120E3EEC09F0FDE1ECEC0BF0EF
:100A8000A6EC0AF08A0E00264C0E01222A0E022243
:100A90008D0E4AEC0DF003E04FEC09F0FDE1D4DBE4
:100AA0000C0EECDBFEE11BEC0CF04BEC0AF0420E02
:100AB0000026390E0122FA0E0222FF0E01EC0DF083
:100AC00002E0EDDBFEE1BDDB1C0ED8DBFEE133EC2A
:100AD0000CF072EC0AF0810E0026F60E0122710E67
:100AE0000222870E4EEC0DF002E0D9DBFEE1B9DB0D
:100AF000150EC4DBFEE122EC0CF099EC0AF0220E9C
:100B00000026610E01229D0E02226D0E52EC0DF0A8
:100B100002E0C5DBFEE188DB100EB0DBFEE13BEC62
:100B20000CF0C0EC0AF00C0E0026380E0122E50E87
:100B30000BEC0DF0170E1F0B02E0B1DBFEE184DBC6
:100B4000090E9CDBFEE11BEC0CF017EC0AF0440EE6
:100B50000026EA0E0122BE0E0222A40E01EC0DF0C8
:100B600002E09DDBFEE16DDB1C0E88DBFEE133EC79
:100B70000CF03EEC0AF0A90E0026CF0E0122DE0E8C
:100B800002224B0E4EEC0DF002E089DBFEE169DB48
:100B9000150E74DBFEE122EC0CF065EC0AF0600E41
:100BA00000264B0E0122BB0E0222F60E52EC0DF077
:100BB00002E075DBFEE138DB100E60DBFEE13BECB2
:100BC0000CF08CEC0AF0700E0026BC0E0122BF0E59
:100BD0000222BE0E77EC0DF002E061DBFEE134DBB9
:100BE000090E4CDBFEE11BEC0CF0B3EC0AF0C60E78
:100BF00000267E0E01229B0E0222280E01EC0DF033
:100C000002E04DDBFEE11DDB1C0E38DBFEE133ECC8
:100C10000CF00AEC0AF0FA0E0026270E0122A10EB3
:100C20000222EA0E4EEC0DF002E039DBFEE119DBA8
:100C3000150E24DBFEE122EC0CF031EC0AF0850EFF
:100C40000026300E0122EF0E0222D40E52EC0DF0DF
:100C500002E025DBFEE1E8DA100E10DBFEE13BEC02
:100C60000CF058EC0AF0050E00261D0E0122880E2D
:100C70000222040E77EC0DF002E011DBFEE1E4DA73
:100C8000090EFCDAFEE11BEC0CF07FEC0AF0390EE9
:100C90000026D00E0122D40E0222D90E01EC0DF056
:100CA00002E0FDDAFEE1CDDA1C0EE8DAFEE133EC1B
:100CB0000CF0A6EC0AF0E50E0026990E0122DB0EE0
:100CC0000222E60E4EEC0DF002E0E9DAFEE1C9DAAE
:100CD000150ED4DAFEE122EC0CF0CDEC0AF0F80EA1
:100CE00000267C0E0122A20E02221F0E52EC0DF0F5
:100CF00002E0D5DAFEE198DA100EC0DAFEE13BEC54
:100D00000CF0A2DB650E0026560E0122AC0E02226C
:100D1000C40E77EC0DF002E0C2DAFEE195DA090EBE
:100D2000ADDAFEE109EC0CF075DB440E0026220E74
:100D30000122290E0222F40E06EC0DF002E0AFDAD9
:100D4000FEE17FDA1A0E9ADAFEE1F4EC0BF0BDDB7D
:100D5000970E0026FF0E01222A0E0222430E56ECA9
:100D60000DF002E09CDAFEE17CDA160E87DAFEE195
:100D700029EC0CF0C0EC0AF0A70E0026230E01228D
:100D8000940E0222AB0E5AEC0DF002E088DAFEE17E
:100D90004BDA110E73DAFEE112EC0CF07CDB390E4B
:100DA0000026A00E0122930E0222FC0E5EEC0DF036
:100DB00002E075DAFEE148DA0B0E60DAFEE109ECDA
:100DC0000CF0C4DBC30E0026590E01225B0E02227A
:100DD000650E06EC0DF002E062DAFEE132DA1A0E80
:100DE0004DDAFEE1F4EC0BF03CDB920E0026CC0E6B
:100DF00001220C0E02228F0E56EC0DF002E04FDAAB
:100E0000FEE12FDA160E3ADAFEE129EC0CF084DB73
:100E10007D0E0026F40E0122EF0E0222FF0E5AEC88
:100E20000DF002E03CDAFEE1FFD9110E27DAFEE117
:100E300012EC0CF0FCDAD10E00265D0E0122840EBD
:100E40000222850E5EEC0DF002E029DAFEE1FCD90B
:100E50000B0E14DAFEE109EC0CF044DB4F0E002619
:100E60007E0E0122A80E02226F0E06EC0DF002E0AB
:100E700016DAFEE1E6D91A0E01DAFEE1F4EC0BF027
:100E80008CDBE00E0026E60E01222C0E0222FE0E66
:100E900056EC0DF002E003DAFEE1E3D9160EEED9CE
:100EA000FEE129EC0CF004DB140E0026430E0122B7
:100EB000010E0222A30E5AEC0DF002E0F0D9FEE181
:100EC000B3D9110EDBD9FEE112EC0CF04CDBA10E14
:100ED0000026110E0122080E02224E0E5EEC0DF0CD
:100EE00002E0DDD9FEE1B0D90B0EC8D9FEE109EC74
:100EF0000CF0C4DA820E00267E0E0122530E02226E
:100F0000F70E06EC0DF002E0CAD9FEE19AD91A0EEE
:100F1000B5D9FEE1F4EC0BF00CDB350E0026F20E39
:100F200001223A0E0222BD0E56EC0DF002E0B7D9B6
:100F3000FEE197D9160EA2D9FEE129EC0CF084DA75
:100F4000BB0E0026D20E0122D70E02222A0E5AEC28
:100F50000DF002E0A4D9FEE167D9110E8FD9FEE1B0
:100F600012EC0CF0CCDA910E0026D30E0122860E84
:100F70000222EB0E5EEC0DF002E091D9FEE164D9A5
:100F80000B0E7CD9FEE10BD9E4D9BAEC0CF0040EBF
:100F90004FEC0CF0A1EC0CF0080E4FEC0CF094ECC4
:100FA0000CF00C0E4FEC0CF087EC0CF0100EE15C2A
:100FB00002E2E16AE5523ED312DBFCDA3AE2DFCF2D
:100FC00006F0010EDBCF07F0D89006360736D89032
:100FD00006360736FB0EDB5006240DEC0DF007201D
:100FE000EA6EEECF02F00250E66ED7EC0CF0B8D904
:100FF000080E44D9FEE10450E66E010E43EC0CF0FD
:10100000AFD9100E3BD9FEE10450E66E020E43EC60
:101010000CF0A6D9180E32D9FEE10450E66E030E8C
:1010200043EC0CF071EC0CF0E552E750EF6EE4DAB3
:10103000C4D7080EE15C02E2E16AE552FBD2CFDAE6
:10104000B9DA01E3A2D022DB0DEC0DF00720EA6E45
:10105000EFCF02F0036A046A056A010E0C6E0D6A96
:101060000E6A0F6A2DEC0DF0EE500C26EE500D229C
:10107000EE500E22EE500F22FB0EDB500C240DEC36
:101080000DF00D20EA6EEFCF08F0096A0A6A0B6ACC
:10109000080E1F0B02E004DBFEE1085002120950AB
:1010A00003120A5004120B500512020E146E156A38
:1010B000166A176A2DEC0DF0EE501426EE5015222C
:1010C000EE501622EE501722FB0EDB5014240DECCE
:1010D0000DF01520EA6EEFCF10F0116A126A136A54
:1010E000100E1F0B07E0D89010361136123613364B
:1010F000E806F9E1105002121150031212500412C6
:1011000013500512030E1C6E1D6A1E6A1F6A2DEC19
:101110000DF0EE501C26EE501D22EE501E22EE5019
:101120001F22FB0EDB501C240DEC0DF01D20EA6E7F
:10113000EFCF18F0196A1A6A1B6A180E1F0B07E026
:10114000D890183619361A361B36E806F9E11850C9
:101150000212195003121A5004121B500512DFCF4D
:1011600000F0010EDBCF01F0D89000360136D890A8
:1011700000360136B6DB02C0EEFF03C0EEFF04C04E
:10118000EEFF05C0EEFF38DA5BD7080EE15C02E245
:10119000E16AE5524FD288DB90DB87EF0CF084DB0D
:1011A000040E00C0DBFF050E01C0DBFF060E02C00F
:1011B000DBFF070E03C0DBFF2DEC0DF094EF0CF00E
:1011C00073DB98DB62EC0DF0DACFEAFFBAEF0CF0DC
:1011D0006BDBC4DB31EC0DF0A1EF0CF0E96EDACF84
:1011E000EAFFE7EF0CF0DACFEAFF0C50EE14086EDE
:1011F0000D50EE14096E0E50EE140A6E0F50EE14E0
:101200000B6EC4D303220050DE260150DE220250B2
:10121000DE220350DD22DD52DD5231EC0DF026ECF2
:101220000DF0EFCF03F01200080EDBCF04F0090E33
:10123000DBCF05F00A0EDBCF06F00B0EDBCF07F09D
:10124000120031EC0DF0BAD3040EDBCF04F0050E22
:10125000DBCF05F0060EDBCF06F0070EDBCF07F085
:1012600012000C0EDBCF04F00D0EDBCF05F00E0EDE
:10127000DBCF06F00F0EDBCF07F01200D89007325D
:10128000063205320432E80612007EEC0DF0081634
:10129000EE500916EE500A16EE500B1677D3D89082
:1012A0000036013602360336E80612007EEC0DF0F9
:1012B0000416EE500516EE500616EE5007161200F4
:1012C000DACFEAFF0850EE18046E0950EE18056EEA
:1012D0000A50EE18066E0B50EE18076E04501200FE
:1012E0000C0EDBCF00F00D0EDBCF01F00E0EDBCFCE
:1012F00002F00F0EDBCF03F01200080EDBCF00F080
:10130000090EDBCF01F00A0EDBCF02F00B0EDBCFB4
:1013100003F012004CDB11EF0DF0F0DB041AEE507D
:10132000051AEE50061AEE50071A04501200E6DBBA
:10133000081AEE50091AEE500A1AEE500B1A120053
:10134000DDDB0412EE500512EE500612EE500712CD
:101350001200FD0EDBCFE9FFFE0EDBCFEAFF12002D
:10136000C0DAE552E750EF6EDFCF08F0010EDBCFB9
:1013700009F0D89008360936D89008360936FB0EA1
:10138000DB5008244ADB0920EA6E18D30C0EDBCFB1
:1013900008F00D0EDBCF09F00E0EDBCF0AF00F0EBA
:1013A000DBCF0BF01200080EDBCF08F0090EDBCF0D
:1013B00009F00A0EDBCF0AF00B0EDBCF0BF01200A8
:1013C000040EDBCF08F0050EDBCF09F0060EDBCFF5
:1013D0000AF0070EDBCF0BF0120043DBEECF08F074
:1013E000EECF09F0EECF0AF0EFCF0BF01200DBCF1B
:1013F0000FF00C1E0D1E0E1E0F1E1200081E091EE1
:101400000A1E0B1ED9501200041E051E061E071EC2
:10141000D950120007014725006E05504821016E82
:1014200006504921026E07504A21036E120007013F
:101430004B25006E05504C21016E06504D21026E69
:1014400007504E21036E120007014F25006E055014
:101450005021016E06505121026E07505221036E39
:10146000120007015325006E05505421016E0650ED
:101470005521026E07505621036E120007015725B1
:10148000006E05505821016E06505921026E07501A
:101490005A21036E120007015B25006E05505C2186
:1014A000016E06505D21026E07505E21036E120030
:1014B00007015F25006E05506021016E0650612115
:1014C000026E07506221036E120007016325006E51
:1014D00005506421016E06506521026E0750662199
:1014E000036E120007016725006E05506821016E2A
:1014F00006506921026E07506A21036E120007012F
:101500006B25006E05506C21016E06506D21026E38
:1015100007506E21036E120007016F25006E055003
:101520007021016E06507121026E07507221036E08
:10153000120007017325006E05507421016E0650DC
:101540007521026E07507621036E12000701772580
:10155000006E05507821016E06507921026E075009
:101560007A21036E120007017B25006E05507C2155
:10157000016E06507D21026E07507E21036E12001F
:1015800007017F25006E05508021016E06508121E4
:10159000026E07508221036E120007018325006E40
:1015A00005508421016E06508521026E0750862168
:1015B000036E1200F70EDBCF00F0F80EDBCF01F068
:1015C000EFD94BDA0050EE5C0150EE580250EE5865
:1015D0000350EE581200E926000EEA22120004DA47
:1015E000080EE12625DA040EDB6A050EDB6A060E1C
:1015F000DB6A070EDB6A120034DAEE2A000EEE22F6
:10160000EE22EE222ADA040EEE26000EEE22EE2262
:10161000EE221200E9CF00F0EACF01F0E9CFE6FFB9
:10162000EACFE6FF1200FB0EDBCFE6FFFC0EDBCFBE
:10163000E6FF1200E16EE552E7CFD9FF1200045039
:101640001F0B04DAEECF03F0120058DA045C006ED0
:10165000EE500558016EEE5006581200E9CFE6FF35
:10166000EACFE6FF26EC02F0E552E552E552E552FC
:101670001200E66EE66AE66AE66A1FEF0DF0D890A1
:101680000332023201320032E8061200040EDBCFD0
:1016900006F0050EDBCF07F0FB0EDB500624120030
:1016A000D890083609360A360B36E8061200F90ECD
:1016B000DBCF00F0FA0EDBCF01F012007DDC026E12
:1016C000080EE15E025012008FD9100EE1261200C2
:1016D0007DEC00F0006E060EE15E00501200016E1F
:1016E00000C0E6FFE66E12000222FD0E0322D95072
:1016F0001200016A026A036A12006ADDA5DDD9CF11
:10170000E9FFD4DDAED9EECF0CF0EECF0DF0EECF89
:101710000EF0EFCF0FF00C1E0D1E0E1E0F1EA6D9E1
:10172000F3EF08F00322D950080F58DD7DEF09F0E0
:1017300047DD87DDC7D9BADD0C0EDBCF0CF00D0E0F
:10174000DBCF0DF00E0EDBCF0EF00F0E50DEDAD930
:10175000F3EF08F00322D9500C0F40DD70EF09F0D1
:101760001ADD7FDD83D9A2DD080EDBCF0CF0090E78
:10177000DBCF0DF00A0EDBCF0EF00B0E38DED9CF2B
:10178000E9FFF3EF08F050DDBDD990DD040EDBCFAB
:101790000CF0050EDBCF0DF0060EDBCF0EF0070EC2
:1017A00026DE90D9F3EF08F00322D9508FD108DD5F
:1017B0004BDD88D97BDD04DE081E091E0A1E0B1EC8
:1017C000D9CFE9FF45EF09F0EADC4BDD9BD96EDDAF
:1017D000DDDD14DE080F8FD1DEDC33DD47D966DDB9
:1017E000FCDD0CDE0C0F87D1F3DC1EDD041E051EB4
:1017F000061E071ED9CFE9FFA3DD84D98DEF09F0BE
:10180000E7DC12DDD9CFE9FF51DDCDDDF7DD040FD7
:1018100072D1C5DC26DDF8DD040FE96E91DD26D935
:101820008DEF09F0B8DC0DDDEFDD080FE96E88DD26
:1018300049D98DEF09F0B3DCB6DD64D978DD42D942
:1018400060EF09F0BDDCC9DD3DD971DD5BD960EF2A
:1018500009F0B6DCF9DCD8DD0C0FE96E71DDD9CF0B
:10186000E9FF8DEF09F0B4DCABDDD9CFE9FF5FDD37
:10187000FDD860EF09F08FDC89DDF8D858DDD9CFCD
:10188000E9FF60EF09F0006E34DFE7D8EE50002684
:10189000EE500122EE500222EE5003221200E76EBB
:1018A00058DDE750EBEF0AF004500012055001122A
:1018B00006500212075003121200080E00C0DBFF90
:1018C000090E01C0DBFF0A0E02C0DBFF0B0E03C0D6
:1018D000DBFFCCD8DACFEAFF12003BDD100EEBEFD6
:1018E0000AF0FD0EDB500024E96EFE0EDB500120F5
:1018F000EA6E12000C0E00C0DBFF0D0E01C0DBFF14
:101900000E0E02C0DBFF0F0E03C0DBFF12000C0E39
:10191000DB50EE260D0EDB50EE220E0EDB50EE22DB
:101920000F0EDB50EE221200080EDB50EE26090EE1
:10193000DB50EE220A0EDB50EE220B0EDB50EE22C5
:101940001200040EDB50EE26050EDB50EE22060ED2
:10195000DB50EE22070EDB50EE22120000C0DFFF4C
:10196000010E01C0DBFF020E02C0DBFF030E03C04D
:10197000DBFF1200DF50EE26010EDB50EE22020EDE
:10198000DB50EE22030EDB50EE2212000850041250
:10199000095005120A5006120B500712045012008B
:1019A000F90EDBCF02F0FA0EDBCF03F01200040ECB
:1019B000DBCF00F0050EDBCF01F01200EECF04F01C
:1019C000EECF05F0EECF06F0EFCF07F0120000509B
:1019D000EE260150EE220250EE220350EE221200BB
:1019E000B8DC180EEBEF0AF0D9CFE6FFE1CFD9FF54
:1019F000120008DC070E1F0B120004DC050E1F0B83
:101A0000120002EC09F0040E1F0B120002EC09F0A8
:101A1000060E1F0B120068DE59D0E96EFC0EDB507B
:101A20001200060EDBCF02F0070EDBCF03F0120030
:101A3000DE6ADE6ADE6ADD6ADD52DD521200FB0E0E
:101A4000DBCFE9FFFC0EDBCFEAFF1200EECF00F0A8
:101A5000EECF01F0EECF02F0120054D8DACFEAFF59
:101A60001200D9CFE9FFDACFEAFF1200D950080FF0
:101A7000E96E120032DF040EEBEF0AF053DE110EB6
:101A80001F0B120067DE090E1F0B12004BDE0E0E3D
:101A90001F0B120089DE140E1F0B12005BDE0B0EF3
:101AA0001F0B12003FDE100E1F0B120053DE0A0E3A
:101AB0001F0B120037DE0F0E1F0B120075DE150E06
:101AC0001F0B1200D9500C0FE96E1200040FEEEC40
:101AD00008F08AEF09F03EDE0C0E1F0B120064DEE8
:101AE000160E1F0B1200CFEC08F0C3EF0BF05CDEFC
:101AF000170E1F0B1200E96E45EF09F0DACFEAFF6F
:0C1B0000EE501200D950040FE96E1200E4
:041B0C0012000601BC
:101B1000CC6B12000601010ECD6F050E5EEC13F0CA
:101B20000601140E646F5D0E656F32EC1BF00A0E39
:101B30005EEF13F00601120E646F5D0E03EF14F0FA
:101B400002EC13F0030EE1260601FC055BE1450EF5
:101B50000601055D57E0410E055D54E0610E055D2F
:101B600051E0500E055D4EE0020E05C6DBFF060E8D
:101B7000E66E060EE66E800EE66E000E6DEC13F05D
:101B8000100EE66EE66A700EE66E000EE66EC2ECB1
:101B900013F025EC13F0DE6ADD6ADECF00F0DDCF56
:101BA00001F0D890015002E686EC13F00BE215EC40
:101BB00013F0C2EC13F0ADEC12F0DF2A010EEDE3EE
:101BC000DB2AEBD7B0EC13F00FEC30F0F5EC12F0B1
:101BD000B0EC13F0C2EC13F0ADEC12F00A0E006E94
:101BE0005D0EA5EC13F0020EDBCF07F6080EE66ED5
:101BF000060EE66EDFEC13F0B0EC13F0D4EC2AF036
:101C000063EC13F0F0EC13F0F3EC13F0CAEC13F008
:101C1000ADEC12F0DFEC13F014EC14F029EC2BF027
:101C2000E552E5524CEC13F0030EE15C02E2E16A8E
:101C3000E552D0EF12F002EC13F0050EE126D6507B
:101C4000016E006A030E00C0DBFF040E01C0DBFF63
:101C5000D7502DEC13F0DF6ADFCF00F0080EE76EEF
:101C60000018E8AE02D0E73402D0E750005C0DE285
:101C700099EC13F0E9BEEA68EB0EE926000EEA22C1
:101C8000EF502DEC13F0DF2AE7D7030EDBCFE6FF92
:101C9000040EDBCFE6FF63EC36F0E552E552DF6A77
:101CA000DFCF00F0160EE76E0018E8AE02D0E73482
:101CB00002D0E750005C0FE2B5EC12F099EC13F0A3
:101CC000E9BEEA68CE0EE926060EEA22E552E750A2
:101CD000EF6EDF2AE5D70601E46B090E39EC13F04D
:101CE000600EE66E000EE66E3EEC13F0B5EC13F0FF
:101CF0003EEC13F0160EE66EE66A68EC13F02FEC7D
:101D000035F0026E0A0EE15E02500601FF0E646FAE
:101D10005C0E656F32EC1BF068EC13F043EC1BF0CB
:101D200053EC13F007EC13F029EC2BF0E552E552DD
:101D300053EC13F0080E39EC13F03EEC13F043ECC7
:101D40001BF04CEC13F0050EE15C02E2E16AE55297
:101D5000D0EF12F006EC14F0F60E006E5C0EA5EC5F
:101D600013F05AEC13F007010251E66EE66A00C761
:101D7000E6FF01C7E6FFDFEC13F007010B51E66E4B
:101D8000E66AE90E006E5C0EB9DB0D0EE15E0350F3
:101D900081DB07010351040A0CE0060A06E0030A8E
:101DA0000CE1DF0E006E5C0E0BD0D70E006E5C0EE9
:101DB00007D0D10E006E5C0E03D0C80E006E5C0E14
:101DC000A2EC13F007010451040A12E0070A0CE028
:101DD000020A06E0010A11E1BE0E006E5C0E10D090
:101DE000B50E006E5C0E0CD0AE0E006E5C0E08D010
:101DF000A10E006E5C0EA2EC13F09F0E006E5C0E46
:101E0000A2EC13F00FEC13F04D080AE10CC7E6FF4B
:101E10000DC7E6FF9B0E006E5C0EDAEC13F006D0E9
:101E2000F6EC13F09B0E0C6E5C0E81DB33DB0FECDB
:101E300013F04D080AE10EC7E6FF0FC7E6FF980E44
:101E4000006E5C0EDAEC13F009D00EC728F00FC755
:101E500029F023DB980E0C6E5C0E69DBEDEC13F0C1
:101E6000020EE15C02E2E16AE5529AD3910E006E45
:101E70005C0EA5EC13F0B0EC13F03BC7E6FF3CC7DB
:101E8000E6FF3DC7E6FF3EC7E6FF43EC32F063ECFA
:101E900013F000DB9F0E006E5C0EA2EC13F0B0ECB2
:101EA00013F03FC7E6FF40C7E6FF41C7E6FF42C762
:101EB000E6FF43EC32F063EC13F0EDEF13F0A2DB3E
:101EC000090EE12607012D5107E12E5105E12F51A1
:101ED00003E1305101E18AD08A0E006E5C0EA5EC60
:101EE00013F0DF6ADFCF00F0040EE76E0018E8AEF3
:101EF00002D0E73402D0E750005C67E299EC13F0BF
:101F0000E9BEEA682D0EE926070EEA22EF50000826
:101F100056E299EC13F0E9BEEA68310EE926070EA5
:101F2000EA22EFCF04F004C029F03CEC27F0E4EC07
:101F300013F0560E2C6E0E0E2D6E8D0E2E6E3E0E66
:101F40002F6E14EC28F0A2EC29F0010E26C0DBFF66
:101F5000020E27C0DBFF030E28C0DBFF040E29C0E2
:101F6000DBFF30DB050E26C0DBFF060E27C0DBFFE4
:101F700029DB070E22C0DBFF080E23C0DBFFD9DB05
:101F8000E9BEEA682D0EE926070EEA22EF50D80FC7
:101F9000E66EE66A070EDBCFE6FF080EDBCFE6FF54
:101FA000050EDBCFE6FF060EDBCFE6FF800E006EF0
:101FB0005C0EA4DA0B0EE15E03506CDA04D07B0EEB
:101FC000006E5C0EBFDBDF2A8DD7F0EC13F0E5521C
:101FD000E552F3CFE9FFF4CFEAFFE906000EEA5A33
:101FE000000EE926060EEA22EF6AAADD090EE15C80
:101FF00002E2E16AE552D4D2740E006E5C0EA5DBFB
:1020000007014651E66EE66A180EE66E070EE66EAA
:10201000680E006E5C0E72DA090EE15E0350EDEFA1
:1020200013F0F0DA040EE126070114511511161110
:10203000171107E1DE6ADE6ADE6ADD6ADD52DD5213
:102040001CD0140EE96E070EEA6EEE500701105D0B
:10205000006EEE501159016EEE501259026EEE50A4
:102060001359036E00C0DFFF010E01C0DBFF020E3B
:1020700002C0DBFF030E03C0DBFF610E006E5C0ECF
:1020800064DBD9CFE9FFDACFEAFFEECFE6FFEECF90
:10209000E6FFEECFE6FFEFCFE6FF07010A51E66E5F
:1020A000E66A37C7E6FF38C7E6FF39C7E6FF3AC733
:1020B000E6FF35C7E6FF36C7E6FF07012C51E66E9F
:1020C000E66A07012B51E66EE66A07012A51E66EC1
:1020D000E66A07010951E66EE66A07010851E66EF5
:1020E000E66A07010751E66EE66A410E006E5C0E75
:1020F00005DA1D0EE15E035070DB040EE15C02E2C6
:10210000E16AE5524DD27EDA060EE126FD0EDBCF06
:10211000DEFFDBCFDDFF83DA08E081DA200805E0AF
:10212000DF2A010EF8E3DB2AF6D779DA200801E08E
:102130009AD0DFCFE9FFDF2A010EDBCFEAFF01E310
:10214000DB2AEF6A03DAC4DACDDA01E18CD0090EBA
:1021500051DA600EE66E000ED7D9F8D926DAF6D934
:1021600094DA62DB54DAD4EC2AF0ADDA5DDB27DBFB
:10217000B9DA01E078D0EAD9000EE66E060EADDAE3
:10218000A7DADBDA600EE66E000EBED94DDB0DDAA3
:102190004BDB7BDA3CDA06DB58DABDDA4DDA01E6F6
:1021A000B5DA09E242DAFEDAD8D9040EDB2A050EE6
:1021B000F5E3DB2AF3D72BDAEDDA47DAACDA3CDAEF
:1021C00001E6A4DA09E231DAE5DAC7D9040EDB2A3E
:1021D000050EF5E3DB2AF3D70601010ECC6F0A0EDC
:1021E00009DA020EDBCFE9FF030EDBCFEAFFEF5087
:1021F000500837E10601FC511EE18DDA1DDA04E6D4
:10220000160E005C000E015814E2AFD9040EDBCFAD
:10221000E9FF050EDBCFEAFFE50EE926060EEA220E
:10222000E552E750EF6E040EDB2A050EE7E3DB2AEA
:10223000E5D70601FB6BFC6B390E006E5C0E85DA90
:102240006FDA7BDA67DC71DA0601010EFC6FD2D936
:10225000700EE66E000E58D963DAA7D961DA15DA86
:1022600002D00601FC6B060EE15C02E2E16AE55277
:1022700097D1CCDA0601CC511DE1070EE66EE66A75
:10228000310E006E5C0E64DA61D931DA67E1070E57
:10229000E76EFD0EDBCF00F0FE0EDBCF01F0E75066
:1022A0000026000E012200C0E6FF01C0E6FF2BDF82
:1022B000E55253D0070E006E5D0E4ADA47D929D990
:1022C000B3DA44D990EC2BF0E552E5528CDA6ADAB5
:1022D00044D9050EE66EE66A2B0E006E5C0ED7D86A
:1022E00006DA37E1D950FD0FE96EDACFEAFF050EC5
:1022F000EE6E060EED6E03DAEF505A0A0DE01B0A81
:102300002DE1240E006E5C0E20DA0601CD5126E18F
:102310008AEC0DF015DC17D0010EE76EF0D9E7500E
:10232000E926000EEA22EF50300810E00701010E06
:10233000456F0601CD5112E18AEC0DF00BDD96DD03
:10234000BEDD5ADE6EDE9AEC0DF008D00701456B5B
:1023500005D0400EE66E91EC1BF0E552020EE15CFA
:1023600002E2E16AE5521CD14DD90601CC512CE0C4
:10237000000EE76ECD19E8AE02D0CD3503D0E750A0
:10238000D880CD5521E3020E54DA110E006E5C0E9A
:10239000D9D9DCD8D2D9080E006E5C0ED3D9460E3E
:1023A000E76EFB0EDBCFE9FFFC0EDBCFEAFFE75069
:1023B000E926000EEA22EF6AFB0EDBCFE6FFFC0EF9
:1023C000DBCFE6FFBAD9B1D9E552E7CFD9FF12008A
:1023D0001DDA2FDA07010451040A12E0070A0CE0A3
:1023E000020A06E0010A10E1FC0E006E5B0E0BD043
:1023F000F10E006E5B0E07D0E80E006E5B0E03D090
:10240000D90E006E5B0E9ED907010351040A0CE041
:10241000060A06E0030A0CE1D00E006E5B0E0BD03C
:10242000BA0E006E5B0E07D0AC0E006E5B0E03D0D2
:102430009B0E006E5B0E86D98C0E006E5B0E82D9F1
:1024400039D9EDD84D0809E10CC7E6FF0DC7E6FF05
:10245000860E006E5B0EAED905D0C8D9800E0C6E0C
:102460005B0E65D817D8790E006E5B0E6BD907012D
:102470000B51E66EE66A740E006E5B0E9BD90AD8AD
:1024800054D9020EE15C02E2E16AE55289D060D9DA
:1024900014EF14F065D99DEF13F04DEC27F027C031
:1024A00008F028C009F029C00AF02AC00BF0B60EC7
:1024B0002C6EF30E2D6ECD0E2E6E3F0E2F6E67EC32
:1024C00028F073EC29F04DEC27F027C004F028C069
:1024D00005F029C006F02AC007F02C6A2D6A2E6A82
:1024E0003F0E2F6E7EEC27F06FD927C0E6FF28C085
:1024F000E6FF29C0E6FF2AC0E6FF120029D930D93D
:1025000004EC37F0036E1200E66E76D92ED9FCEF9C
:1025100013F099EC2FF0036E050EE15E03501200EC
:10252000F6EC2FF0036E050EE15E035012000D6E07
:102530000E6A0CC0E6FFE66E0EC0E6FF11D904EC91
:1025400037F00F6E090EE15E0F501200FD0EDBCF6B
:10255000E6FFFE0EDBCFE6FF1200E66E67EC31F021
:10256000006E080EE15E005012006AEC36F0F3CF08
:10257000F6FFF4CFF7FF400E2D6E2E6AF6CF28F04F
:10258000F7CF29F0D4EC28F024C0F6FF25C0F7FFE0
:10259000EC0EF6266F0EF7220800F550E66E1200DC
:1025A000E16EE552E7CFD9FF12000FEC30F0E552B3
:1025B000E552F3CF02F0F4CF03F0F3CFE6FFF4CF10
:1025C000E6FF1200010EDBCF26F0020EDBCF27F074
:1025D000030EDBCF28F0040EDBCF29F00A0E2B6EA2
:1025E0002C6A2D6A2E6AFAEF28F0E552E55212D9CC
:1025F000DFEF13F014D9020EF3CFDBFF030EF4CF9D
:10260000DBFF1200D9CFE6FFE1CFD9FF1200100E99
:10261000E66EE66A600EE66E000EE66E1200DECF33
:10262000E9FFDDCFEAFFEF5012000601006B010E5B
:10263000E66EE66A14EF14F0040EDBCF00F0050E30
:10264000DBCF01F0D89001501200E66EBEEC30F006
:10265000006E080EE15E00501200006E016AD95053
:10266000030FE96EDACFEAFF0050EE260150ED22AB
:102670001200D5D8DE52CED8DD521200010EDBCFCB
:10268000E6FF020EDBCFE6FF12002FEC35F0046E02
:102690000A0EE15E04501200E552E5520601070EF3
:1026A000646F5D0EB0D0E552E5520601FD0E646F19
:1026B0005C0EA9D0020EB3D80AEF14F0E66E18EC47
:1026C00032F0E5521200006E060EE15E005012007C
:1026D000CE0EE66E060EE66E1200E66ED5EC2FF01C
:1026E00021EF14F0B5EC2FF0ACD80009120011EC7A
:1026F0002FF0036E070EE15E035000091200FD0E7D
:10270000DBCFE9FFFE0EDBCFEAFF1200000E005C1C
:10271000040E01581200040EDB6A050EDB6A12007B
:10272000E50EE66E060EE66E1200A0EC0DF09AEFD6
:102730000DF0DFCFE9FFEA6A120076D875EC2FF0D2
:1027400021EF14F0A4DE89EF12F0A1DE90EF12F079
:10275000016E026A00C0E6FFE66E02C0E6FF1200EC
:10276000800EE66E000EE66E12000FEC30F0E552C1
:10277000E552F3CF00F0F4CF01F0F3CFE6FFF4CF52
:10278000E6FF1200000EE66E030EE66EE80EE66E41
:10279000000E1200000EE66E010EE66EE40EE66E0E
:1027A000000E1200000EE66E020EE66EE60EE66EFB
:1027B000000E1200A3DE070EE15E03501200DECF12
:1027C000E6FFDDCFE6FF120027C000F028C001F0D1
:1027D00029C002F02AC003F012005CDEA0EF0DF069
:1027E00023D80FEF30F001DF14EF14F00CC728F0FE
:1027F0000DC729F04DEF12F0020EDBCFE6FF030EFE
:10280000DBCFE6FF1200656F32EF1BF0FBDE020E3E
:10281000E1261200F3CFDEFFF4CFDDFF1200E66EFB
:1028200069EC33F0E5521200000EE66E060EE66E1D
:10283000120044DF8AEC0DF01C0E006E5C0EA5EF5A
:0C28400013F0E552E552E552E55212009B
:04284C0062EC19F031
:10285000FB0EDBCFF3FFDB06F35000090AE0B0EC20
:1028600019F0FA0E1BEC1AF0F3E1011CF1E1010E74
:1028700001D0000E91EF19F062EC19F03B0EE1244B
:1028800002E3E168E652E16E010EDB6A020EDB6AEA
:10289000F90EDBCFF6FFFA0EDBCFF7FFFB0EDBCF37
:1028A000F8FF0800F550DF6EDF5002E1B5EF18F0D9
:1028B000250EDF5C02E0A8EF18F0030EDB6A040EC1
:1028C000DB6A050EDB6A060EDB6A070EDB6ACAEC02
:1028D00018F02D0EDF5C0CE02B0EDF5C09E0200E03
:1028E000DF5C06E0230EDF5C03E0300EDF5C1AE104
:1028F000DF50300A14E0130A0FE0030A0AE00B0A63
:1029000005E0060AE4E1030EDB80E1D7030EDB827B
:10291000DED7030EDB84DBD7030EDB86D8D7030EAE
:10292000DB88D5D72A0EDF5C1BE1C6EC18F014EC6F
:1029300019F010E0030EDB8028682968130EDBCF46
:102940002DF0140EDBCF2EF05FEC2AF0040E26C023
:10295000DBFF03D0130EFDEC18F0CAEC18F00BD01F
:10296000090EDB6A6BEC19F003E0DFEC19F0FAD723
:10297000090EFDEC18F0030EDBB0DB982E0EDF5CC9
:102980001BE1CAEC18F02A0EDF5C0BE1C6EC18F074
:1029900014EC19F003E1130E4FEC19F0CAEC18F027
:1029A0000BD0090EDB6A6BEC19F003E0DFEC19F0D9
:1029B000FAD7090E4FEC19F0680EDF5C07E1CAEC9C
:1029C00018F0680EDF5C1DE1030E18D0740EDF5C9A
:1029D00017E07A0EDF5C14E0480EDF5C06E0540E70
:1029E000DF5C03E05A0EDF5C02E1020E07D06C0EE2
:1029F000DF5C03E06A0EDF5C04E1010EA2EC19F07B
:102A0000C9DBDF506E0A01E17FD31E0A01E192D1DA
:102A1000200A01E18FD13F0A01E149D11A0A01E1FF
:102A200046D10D0A01E143D1200A01E140D13A0A21
:102A300001E13DD1200A01E13AD1260A01E135D177
:102A40000D0A01E132D11A0A01E1D9D0200A4AE087
:102A5000300A1FE0460A0EE0250A01E083D3D95070
:102A6000F90FE96EFF0EDA20EA6E010EEE5E000E3F
:102A7000EE5AEE5AB0EC19F0250EE66E95DB03E146
:102A8000011C01E169D3ACEC19F001E26BD3DB2A44
:102A900069D3080EDB6A040EDB50010806E2040E5F
:102AA000DB0474EC19F0DB508BDB080EDB5009E023
:102AB000030EDB50010B05E172DB01E04DD3080E84
:102AC000DB6A64DBEFCFDFFF24EC1AF003E1011CCB
:102AD00001E142D3ACEC19F001E3DB2A60DB01E158
:102AE00041D33AD3070EDB5002080FE1F0EC19F0A6
:102AF000030EB7EC19F00E0EEECFDBFF0F0EEECF8C
:102B0000DBFF100EEECFDBFF20D0F70EDBCF03F0A4
:102B1000F80EDBCF04F0020E035E000E045AF70E2F
:102B200003C0DBFFF80E04C0DBFF03C0E9FF04C0F5
:102B3000EAFFA7EC19F0026A0E0E00C0DBFF0F0ED1
:102B400001C0DBFF100E02C0DBFF0E0EDBCFE6FF85
:102B50000F0EDBCFE6FF100EDBCFE6FF99EC30F077
:102B6000E552E552E552130E27C0DBFF140E28C0D4
:102B7000DBFF060EDB5005E0130EEBEC19F001E273
:102B80006ADB0FEC1AF002E2130E37DBD2EC19F01D
:102B900006E0040EEBEC19F002E2050E2EDB030E4C
:102BA000DBB005D0FCDA01E0D7D2080EDB6A090EF3
:102BB000DB6A0E0EDBCFF6FF0F0EDBCFF7FF100E3A
:102BC000DBCFF8FF0800F550DF6EDF5014E015ECA6
:102BD0001AF011E224EC1AF003E1011C01E1BCD26D
:102BE000BBDB01E3DB2A090EDB2AD9500E0FE96EAD
:102BF000000ECBDBE7D7D3DA01E1B4D2ADD2C6DA2F
:102C0000110EEECFDBFF120EEDCFDBFF110EDBCF8F
:102C1000E6FF120EDBCFE6FF0FEC30F0E552E55297
:102C2000130EF3CFDBFF140EF4CFDBFF060EDB50E9
:102C300004E0130ED0DB01E20EDB0FEC1AF002E22F
:102C4000130EDBDAAFDB05E0040EC5DB02E2050E96
:102C5000D4DA030EDBB005D0A2DA01E07DD2080E93
:102C6000DB6A090EDB6A110EDBCFE9FF120EDBCF48
:102C7000EAFFEFCFDFFFDF5014E0D7DB12E2E4DB47
:102C800003E1011C01E168D267DB01E3DB2A090EE5
:102C9000DB2A110EDB2ADBCFE9FF120EE8E3DB2A89
:102CA000E6D77DDA01E15ED257D2030EDB8E070E46
:102CB000DB0410E195DB040E5ADB0A0EEECFDBFFDE
:102CC0000B0EEECFDBFF0C0EEECFDBFF0D0EEECFCB
:102CD000DBFF6CD0070EDB5003082CE1030EDBAEEC
:102CE0000DD0B2DA020E76DAEFCF00F0016A026A96
:102CF000036A00AE39D00168026835D0F70EDBCF29
:102D000001F0F80EDBCF02F0020E015E000E025A57
:102D1000F70E01C0DBFFF80E02C0DBFF01C0E9FFC8
:102D200002C0EAFFEFCF00F00A0E00C0DBFF0B0E7F
:102D3000DB6A38D0070EDB50020809E1030EDBAE78
:102D400004D059DB02AE10D00ED055DB0DD0030EEF
:102D5000DBAE12D079DA020E3DDAF9DA026A036AE2
:102D600001AE02D002680368E2DA0C0E02C0DBFF9B
:102D70000D0E03C0DBFF1AD0F70EDBCF02F0F80E0A
:102D8000DBCF03F0020E025E000E035AF70E02C004
:102D9000DBFFF80E03C0DBFF02C0E9FF03C0EAFF60
:102DA000D6DAC5DA0C0EDB6A0D0EDB6A060EDB50D6
:102DB00005E1010EF36E050EF3CFDBFF150EDB6AA6
:102DC000160EDB6AD950370F006E000EDA20016E46
:102DD000390E00C0DBFF3A0E01C0DBFF380EDB6AA4
:102DE000080EDB6A0A0EAEDADF50780A12E0200A1B
:102DF00010E0280A0CE0200A0AE03F0A06E00D0A6B
:102E000002E0200A08E1020E05D0080E03D0080EE9
:102E1000DF26100E97DA030EDBBE02D0DB92DB94C6
:102E2000DB50800B24E08ADAD890030EEB50000AC6
:102E300008E6000EEE5C000EEE58000EEE58000E96
:102E4000EE5815E213DA2B682C682D682E68BDEC5D
:102E500038F00A0E22C0DBFF0B0E23C0DBFF0C0E86
:102E600024C0DBFF0D0E25C0DBFF2D0E08D0030EA6
:102E7000DBA202D02B0E03D0DBA408D0200EF36E11
:102E8000170EF3CFDBFF150EDB2A02D0170EDB6A1D
:102E9000050EDB5003E1B7D901E189D0FA0E006ECF
:102EA000720E016E000E026E070EDBCF03F0046A95
:102EB000056A066A03C02BF004C02CF005C02DF093
:102EC00006C02EF0D3D9F5EC38F000502224F36E72
:102ED00001502320F46E02502420F86EF4CFF7FF47
:102EE000F3CFF6FF0800090EF5CFDBFF580EDF5CCD
:102EF0000FE1610EF36E090E7BD90AE3200E006E1E
:102F0000090EDBCFE7FF0050E75E090EE7CFDBFFDE
:102F1000070EDBCF00F0016A026A036A0FDA00C015
:102F20002BF001C02CF002C02DF003C02EF0EECF2C
:102F300026F0EECF27F0EECF28F0EFCF29F0F5EC1A
:102F400038F029C0EDFF28C0EDFF27C0EDFF26C0F7
:102F5000EFFF390EDBCFE9FFDB063A0EDBCFEAFFEE
:102F600001E2DB06090EDBCFEFFF150EDB2A4BD9A2
:102F700095E1030EDBA61DD06F0EDF5C06E1C1D923
:102F800018E3150EDB285BDA14D0780EDF5C09E05D
:102F9000580EDF5C06E0620EDF5C03E0420EDF5C91
:102FA00008E1020EF36E160EF3CFDBFF02D0150E12
:102FB000DB6A030EDB50100B0EE0040EDBCF00F0DB
:102FC000050EDB50D880005406E2060EDB5003E10C
:102FD000040EDB5034DA95D90AE2050EDBCFE7FFA9
:102FE000150EDB50E75E050EE7CFDBFF02D0050EC6
:102FF000DB6A040EDBCF00F0160E45D9D8800054F2
:1030000014E2160EDBCFE6FF150EDBCFE6FF040E53
:10301000DBCFE6FF050EDB50E552E75CE552D880DA
:10302000E754E552D880E7545FD9030EDB50010B1B
:103030000BE1080EDB5008E0B2D801E08DD0080E9D
:10304000DB50BED8080EDB6A170EDB5007E088D9CC
:10305000170EF1D903E1011C01E17ED0160EDB5001
:1030600016E07ED9300EE66E9FD802E1011C74E0B6
:1030700077D9DFCFE6FF3FEC38F0E552E552E55275
:10308000F4CF01F00001F31C02E1011C65E0050E24
:10309000DBCF00F0160EDB50D880005409E2050E9D
:1030A000DBCFE7FF160EDB50E75E050EE7CFDBFF59
:1030B000300EE66E050ECBD94FE1390EDB2ADBCFA1
:1030C000E9FF3A0E01E3DB2ADBCFEAFF090EEFCF7F
:1030D000DBFFDB500EE044D9090EADD902E1011C43
:1030E0003BE0390EDB2ADBCFE9FF3A0EEDE3DB2ACA
:1030F000EBD755D831E1160EDBCFE6FF080EC3D86B
:10310000E552E7245DD82ED0070EDB50030A1CE001
:10311000010A14E0030A07E07BD9DBCFEEFF020EC1
:10312000DBCFEDFF1FD0F5D8056A03AE02D00468EF
:1031300005682CD8BCD805C0EEFF14D0EAD803BE71
:10314000046824D8B4D80ED063D9DBCFEFFF0AD0FF
:103150007BD905E1011C03E1F368F46810D0FCD8C9
:1031600001E3DB2A79D951EF14F0010EDBCF00F037
:10317000020EDBCF01F000C0F3FF01C0F4FF3B0EF5
:10318000E15C02E2E16AE552E16ECBD029D9020EA0
:10319000B7EF19F061D90800F550DF6E1200200E6C
:1031A000E66E080E27EF1AF03FEC38F0E552E552D4
:1031B000E552F3CF00F0F4CF01F00001F31C120050
:1031C000006E016AD950010F4DD90050EE26015012
:1031D000ED221200045E000E055AF70E04C0DBFF5C
:1031E000F80E05C0DBFF04C0E9FF05C0EAFF1200CE
:1031F000DBCFF4FFF350F45C1200DB50E76E040EFB
:10320000E7CFDBFF12000A0EDBCF00F00B0EDBCFA7
:1032100001F00C0EDBCF02F00D0EDBCF03F00050FF
:103220000110021003101200130EEECFDBFF140E7C
:10323000EDCFDBFF130EDBCF00F0140EDBCF01F080
:103240000001800E01141200F70EDBCF04F0F80E1F
:10325000DBCF05F01200050EDB50E66ED950130FE0
:1032600001D9E552E750EE6EED6A12000A0EDBCF8F
:1032700026F00B0EDBCF27F00C0EDBCF28F00D0E67
:10328000DBCF29F01200DBCFE6FF150EDBCFE6FF28
:10329000050EDB50E552E724E552E7241200DB502F
:1032A000CED8010EF36E060EF3CFDBFF1200EE5008
:1032B000EFCFEAFFE96E02C0EEFF03C0EEFF04C0ED
:1032C000EEFF1200D9CFE6FFDACFE6FFE1CFD9FF5C
:1032D000E2CFDAFF1200DFCFE6FFE66A2FEC39F02B
:1032E000E552E552F3501200E76E080EE7CFDBFF20
:1032F0001200EECF00F0EECF01F0EFCF02F0036A44
:103300001200050EDBCF00F0150EDB50D880005404
:103310001200010EDBCF02F0020EDBCF03F0046AD5
:103320001200E552E5CFDAFFE7CFD9FF12000A0E0F
:1033300000C0DBFF0B0E01C0DBFF1200D9500A0FEB
:1033400032EF1AF0F36E070EF3CFDBFF1200EECF71
:1033500000F0EFCF01F01200010EDB2A020E120086
:10336000FC0EDBCFE6FFFD0EDBCFE6FF1200005EBA
:10337000000E015AF70E00C0DBFFF80E01C0DBFFA4
:1033800000C0E9FF01C0EAFF1200DA20EA6EEF2A6E
:10339000EECFF6FF000EEF22EECFF7FFEF22EECFDB
:1033A000F8FF1200040EDBCFE6FF130EDB50E552F0
:1033B000E75C9ADFDB5004DF060EDB501200090EDB
:1033C000DB500A0DF350DF24D00FE76E090EE7CF74
:1033D000DBFFCAEF18F0DB50F36E050EF8EF18F0C4
:1033E000F70EDBCF00F0F80EDBCF01F01200DFCFDD
:1033F000E6FFD4EF18F028DF030EECDE79EF19F0CA
:1034000026EC14F0E552E552E552E55200091200AF
:10341000BDDEEE50EFCFEAFFE96E010E1200130E93
:10342000DB50F36E040EF8EF18F0040EDB50F36E71
:10343000090EF8EF18F0DBCFE6FFD4EF18F0E76ED7
:10344000050EE7CFDBFF12008BDFF7EF19F0DBCFC4
:10345000E6FF86DF00EF1AF0D950F90FE96EFF0E94
:0E346000C5EF19F0E96E000EDA20EA6E1200D8
:02346E00D8CFB5
:10347000E4FFE0CFE4FFE46EDACFE4FFE2CFDAFF6F
:10348000E9CFE4FFEACFE4FFF6CFE4FFF7CFE4FFB4
:10349000F5CFE4FFF3CFE4FFF4CFE4FFFACFE4FF8E
:1034A00000EE20F0140EE80403E3EECFE4FFFBD7B8
:1034B00000EE00F0200EE80403E3EECFE4FFFBD7BC
:1034C000E652C2EC34F0E55200EE1FF0200EE804A4
:1034D00003E3E5CFEDFFFBD700EE33F0140EE80475
:1034E00003E3E5CFEDFFFBD7E5CFFAFFE5CFF4FF30
:1034F000E5CFF3FFE5CFF5FFE5CFF7FFE5CFF6FF2B
:10350000E5CFEAFFE5CFE9FFE5CFDAFFE550E5CF0C
:10351000E0FFE5CFD8FF10000501009B1200A9ECE9
:103520001FF0E652D9CFE6FFDACFE6FF98EC34F091
:10353000E552E552000901E192D0FE0E0401F85D6A
:1035400003E0FF0EF85D72E10D0EDF5CEBE0E3ECF3
:103550001FF001E1F7073A0EDF5C22E1060EF75D8E
:103560001FE32B0E0601665D1BE1490E675D18E146
:10357000500E685D15E1440E695D12E10401F70526
:103580007FEC1FF0EF6A6B0EE66E060EE66EEEEC59
:1035900035F0E552E552F3CFF8F40401F76BC2D7EA
:1035A0000A0EDF5CBFE10401F707F7517FEC1FF063
:1035B000EF6A040EF75D37E32B0E0601665D33E11B
:1035C000430E675D30E14D0E685D2DE1540E695D7F
:1035D0002AE1070EDF6EDF50DF2A7FEC1FF0EF508D
:1035E000220804E00401F751DF5CF5E3DF047FEC1F
:1035F0001FF0EF6A0401E36B140EE66EE66A6D0ECF
:10360000E66E060EE66EE30EE66E040EE66E48EC1F
:1036100030F0006E060EE15E00500401F66BF76BB1
:10362000FE0EF86F7FD71AD9040116D00D0EDF5C9D
:1036300004E0E3EC1FF001E1F707F8070A0EDF5C96
:1036400008E1F707F7517FEC1FF0EF6A07D9040193
:10365000F76BF85101E066D7F76BF86963D7E5526D
:10366000AEEF1FF0050100B1FDD7BFEC1FF0E66E15
:1036700071EC34F0E5520601642B000E6523BFECBB
:103680001FF0F0E11200A9EC1FF0050100B1FDD719
:10369000FD0EDBCFE9FFFE0EDBCFEAFFEF50E66E5B
:1036A00071EC34F0E552FD0EDB2ADBCFE9FFFE0EB4
:1036B00001E3DB2ADBCFEAFFEF50E7E1AEEF1FF0DB
:1036C000A9EC1FF0050100B1FDD7FE0EDBCFE6FF30
:1036D00071EC34F0E552AEEF1FF0A9EC1FF0040ED0
:1036E000E126030EE66EA1EC1FF0700E026E5B0E7B
:1036F000E1DB03E00001010EFF6F6D0E026E5B0E59
:10370000D9DB03E00601010ECA6F040EE15C02E2A0
:10371000E16AE552E16EAEEF1FF00601010ECB6FDC
:103720001200A9EC1FF0020EE126FE0EDBCFD8F44A
:103730000401D851210A74E0010A5FE0600A3DE00B
:10374000500A2FE0130A1CE0010A12E0030A01E00C
:103750007ED08180100EDC6F1E0EDD6FDE6B010EE1
:10376000D96F0701456BCCEC1FF086EC0DF06FD0E4
:103770008180B2EC1FF0B7EC1FF00401DC6B67D066
:10378000020EDC6FDD6FDE6BB7EC1FF0010ECCECD0
:103790001FF00401D96B0701456B87EC0DF0819098
:1037A00056D0030EDC6F230EDD6FDE6BDBDBDFDB61
:1037B0000601020E646F710E48D0ACDBD3DB050E40
:1037C000E66EBFDBDECFE9FFDDCFEAFFEF5012E0B0
:1037D0000401020EDC6F3C0EDD6FDE6BD96B07015E
:1037E000456B87EC0DF0020E90DB0601610E646FF5
:1037F0005B0E2BD00401200ED86F0601CD6B0401A7
:10380000DC6BD96B0701430507E0050E435D04E05F
:10381000780E0401E16F02D00401E16BE26B17D076
:10382000020E73DB0401030EDC6FD96BD9C4E6FF13
:1038300033EC32F0E552F00E0401DD6FDE6B87EC05
:103840000DF00601550E646F710E656F0BDF020EF1
:10385000E15C02E2E16AE552E16E80D3FE0E040112
:10386000F85D16E10701430505E0050E435D02E042
:10387000040150DBF7C4E6FFB4DBE30EE66E040E92
:10388000E66EDDEC24F0006E050EE15E00501200E5
:10389000FF0EF85D06E0A5DB39EC11F0E552E552CC
:1038A0001200D851200A01E1C5D0600A30E0610A57
:1038B00012E0310A01E01200020EF75D01E2ABD125
:1038C0004F0E0601665D01E0A6D14B0E675D01E07B
:1038D000A2D1210E2CD0020EF75D09E34F0E060196
:1038E000665D05E14B0E675D02E1400E20D0050EDE
:1038F0000401F75D01E28FD1450E0601665D01E02E
:103900008AD1520E675D01E086D1020E10D0020E00
:10391000F75D0FE3450E0601665D0BE1520E675D34
:1039200008E1050E0401D95D04E11CDB030ED1EFB3
:103930001FF0020E0401F75D07E34F0E0601665DFE
:1039400003E14B0E675D0BE0530E0601665D03E17C
:10395000480E675D04E0050E0401D95D55E10401E0
:10396000F76B3C0EDD6FDE6B0701446B010ECDDAA9
:103970000401D92BD951080A45E00F0A37E0010AA2
:1039800030E0030A29E0010A22E0070A1BE0010AED
:103990000AE0030A01E0120006014D0E646F5B0E9F
:1039A000EBDA050E0AD00601400E646F5B0EE4DA16
:1039B000050E11DB060E0FDB070E6ADA4A0E646F86
:1039C0005B0E1ED00601320E646F5B0E19D006012D
:1039D000240E646F5B0E14D006011A0E646F5B0E2A
:1039E0000FD00601020E646F5B0E0AD00601EE0EC8
:1039F000646F5A0EC1DA040E4BDAE40E646F5A0E8D
:103A0000BCEF1FF0200E8ED0070EF75D08E3080E06
:103A1000E66EE66ADB0E006E5A0E2CDA09E00B0E3B
:103A2000E66EE66ACF0E006E5A0E24DA01E0F3D09D
:103A3000020E78D0050EE66EE66AC90E006E5A0ECA
:103A400019DA22E12C0E06016E5D03E1070E6F15F7
:103A500002D0070E6D150701436FE80403E0050E61
:103A6000435D06E10401E16BE26B010EE66E09D0F5
:103A70000401E151E21101E0CED0780EE16FE26B7A
:103A8000E66A33EC32F050D0050EE66EE66AC30EFD
:103A9000006E5A0EEFD911E10701430505E0050E4E
:103AA000435D02E0040136DA010E2FDA0601500E02
:103AB000646F710E61DA6DEF1BF00A0EE66EE66A56
:103AC000B80E006E5A0ED6D904E1070144511AE12E
:103AD00013D0070EE66EE66AB00E006E5A0ECAD913
:103AE00025E1110EE66EE66A9E0E006E5A0EC2D9F0
:103AF0000DE10701445106E18AEC0DF01BEC0EF0DC
:103B00009AEC0DF00701010E446F12000701446B9F
:103B10000701430504E0050E435D01E07CD087EC1E
:103B20000DF0400EE66EFDDDE5521200050EE66E6C
:103B3000E66A980E006E5A0E9DD912E12C0E06010F
:103B40006E5D09E1070E6D15006E070E6C150A0D0E
:103B5000F350002402D0070E6C150701466F1200C7
:103B6000070EE66EE66A900E006E5A0E83D908E0E4
:103B70000B0EE66EE66A840E006E5A0E7BD903E1E8
:103B80000601CD6B1200090EE66EE66A7A0E006E33
:103B90005A0E70D93CE0060EE66EE66A730E046EAD
:103BA0005A0E056E066A04C0E6FFE66E06C0E6FF22
:103BB00007DA076E070EE15E0750000928E00A0EDB
:103BC000E66EE66A680E086E5A0E096E0A6A08C04A
:103BD000E6FFE66E0AC0E6FFF3D90B6E070EE15E64
:103BE0000B50000914E00B0EE66EE66ACF0E0C6E69
:103BF0005A0E0D6E0E6A0CC0E6FFE66E0EC0E6FFB2
:103C0000DFD90F6E070EE15E0F50000904E187EC6B
:103C10000DF0400EC6D912009CD9020EE126040117
:103C2000D851200A1BE0220A17E0230A07E0200AE5
:103C300001E07ED0010ED919D96F0AD0010ED91931
:103C4000D96FE66E33EC32F0E552010E0401D9195A
:103C5000E66E3BEC32F04BD0010E24D0000ED88043
:103C6000E155000EE25508E2E107000EE25BE1518A
:103C7000E21102E1210E16D099D9E8AE02D0CD357D
:103C800003D0E750D880CD5510E2CD2B3C0EE76E27
:103C9000CD19E8AE02D0CD3503D0E750D880CD5550
:103CA00004E2400EE66E3DDD22D00701430503E04D
:103CB000050E435D3DE10601CA050AE10601CC059A
:103CC00007E10601CA6B0A0E20D9E8EC11F030D0EA
:103CD0000001FF050EE1FF6B0A0E17D9E66A31D924
:103CE000DECFE6FFDDCFE6FF24EC24F0E552E5521F
:103CF0001FD00601CB051CE10601CC0519E1000E21
:103D00000701E76E4519E8AE02D0453503D0E7500C
:103D1000D88045550DE20601CD510AE10601CB6B75
:103D20000A0EF3D88AEC0DF011EC10F09AEC0DF0BD
:103D3000020EE15C02E2E16AE552E16E0FD104019C
:103D4000D851200A01E0120031D9E8AE02D0CD35B9
:103D500003D0E750D880CD5501E218D107014405C2
:103D60000DE1000E0701E76E4519E8AE02D04535BA
:103D700003D0E750D880455501E2D7D8010E0401A1
:103D8000D919D96F020EC1D80601600E646F710E89
:103D9000656F68DC05014151000803E2010EB5D8EA
:103DA000F9D7020E85EF1FF012000401D851200A46
:103DB00001E01200070144050EE1070145510BE146
:103DC000F5D8E8AE02D0CD3503D0E750D880CD5538
:103DD00001E2DCD0AAD812000401DF2B000EE023A0
:103DE000DC5100080FE2DDC400F0DEC401F0DD07A5
:103DF000000EDE5B0050011005E1DCC4E6FF91DC43
:103E0000E55201D009DFD7D83C0E2D6E2E6A6AD854
:103E100001E195DFD0D82C0E2D6E010E2E6E62D8EA
:103E200001E1C2DFC8D8580E2D6E020E2E6E5AD890
:103E300006E1BBDF580E0401DF5F020EE05B1200FB
:103E4000200E0401D85D0AE10701440507E1010ED7
:103E5000D75C03E2010ECCEF1FF084D81200800E75
:103E6000946E818055EC34F082D80701436B010ECB
:103E7000D1EF1FF0016E026A00C0E6FFE66E02C0DD
:103E8000E6FF9ED8036E070EE15E035000091200A4
:103E9000E66E69EC33F0E552F3CF00F0F4CF01F0B9
:103EA000F3CFE6FFF4CFE6FF43EC1BF0E552E5521B
:103EB00006011200036E046A02C0E6FFE66E04C04B
:103EC000E6FFDECFE6FFDDCFE6FF76EC30F0056EF5
:103ED000050EE15E0550F3CF00F0F4CF01F0F35092
:103EE000F4101200DFC428F0E0C429F019EC39F016
:103EF00024C000F025C001F0245025101200EA6A09
:103F0000660FE96E060EEA221200E66E18EC32F039
:103F1000E5521200E16BE26B0701050E436F010EE3
:103F2000E66E33EC32F0E55212008AEC0DF0AAECAA
:103F30000EF036EC0FF05FEC0FF011EC10F09AEF92
:103F40000DF069EC33F0E552F3CFDEFFF4CFDDFF87
:103F50001200D9CFE6FFE1CFD9FF1200E552E7CF3B
:103F6000D9FF1200E66A3BEC32F0E5521200E66A35
:103F700033EC32F0E5521200656F32EF1BF064C68D
:103F8000F6FF65C6F7FF0800F5501200050E0401A4
:103F9000DF5F000EE05B1200E66E3BEC32F0E552B4
:103FA0001200E66E91EC1BF0E5521200000E0601C5
:103FB000E76ECD191200DFC400F0E0C401F012007A
:103FC00010D811EF2FF0F751F72B99DFDFCFEFFF6C
:103FD000640EF75D12005CDF3C0E646F5B0EBCEF9D
:0C3FE0001FF0660EE66E060EE66E120084
:043FEC00DACFE4FF45
:103FF000E2CFDAFFE9CFE4FFEACFE4FFF6CFE4FF58
:10400000F7CFE4FFF5CFE4FFF3CFE4FFF4CFE4FF15
:10401000FACFE4FF00EE20F0140EE80403E3EECF45
:10402000E4FFFBD700EE00F0200EE80403E3EECF40
:10403000E4FFFBD7E65260BE69D80F0150BFC8D974
:10404000A46AE55200EE1FF0200EE80403E3E5CF7A
:10405000EDFFFBD700EE33F0140EE80403E3E5CFE9
:10406000EDFFFBD7E5CFFAFFE5CFF4FFE5CFF3FF98
:10407000E5CFF5FFE5CFF7FFE5CFF6FFE5CFEAFFA8
:10408000E5CFE9FFE5CFDAFF110064DB900E6F6E3C
:104090006EAEFED7606A0F01A00E196F1869016B32
:1040A000200E006F506BE00E1D6F1C69800E096FB3
:1040B000680E086F400E0D6F800E0C6F116B106F45
:1040C000706AD20E716E020E726E200E736E6F6A7F
:1040D000D08EA382A380030EA56E020EE66E69EC5D
:1040E00033F0E552F3CFDEFFF4CFDDFFDECFE9FFA3
:1040F000DDCFEAFFEFCFFCF40001F36BFB6B020EA8
:10410000E15C02E2E16AE552E16E2BD30F0E651429
:104110000001EA6F66CFEBF067CFECF068CFEDF00F
:1041200069CFEEF06ACFEFF06BCFF0F06CCFF1F02B
:104130006DCFF2F0609EEB51A60A01E142D1030A75
:1041400001E136D1010A01E12BD1070A01E121D1B8
:10415000350A01E1CFD0030A01E1BFD01C0A01E119
:1041600080D0010A01E17AD00C0A5EE0070A42E041
:10417000020A26E0010A0CE08E0A01E01200EC516E
:104180000701095D02E08DEC1BF0ECC009F712009D
:10419000ECC00BF7EEC001F0006AED5107010024FE
:1041A0000C6F000E01200D6FF2C001F0006A0001DB
:1041B000F151070100240E6F000E01200F6F120055
:1041C0007EDA02E096DAFEE149DA02E099DAFEE10F
:1041D0004EDA02E09CDAFEE100500C240701106F79
:1041E00001500D20116F02500E20126F03500F204E
:1041F000136F120064DA02E07CDAFEE12FDA02E0EB
:104200007FDAFEE134DA02E082DAFEE100500C24CB
:1042100007013B6F01500D203C6F02500E203D6F97
:1042200003500F203E6F12004ADA02E062DAFEE12C
:1042300015DA02E065DAFEE11ADA02E068DAFEE198
:1042400000500C2407013F6F01500D20406F0250B9
:104250000E20416F03500F20426F1200ECC002F796
:1042600012004D0E0401FC5D03E1ECC00AF729D0F9
:10427000ECC029F03CEC27F027C004F028C005F082
:1042800029C006F02AC007F0B60E2C6EF30E2D6E74
:10429000CD0E2E6E3F0E2F6E67EC28F027C000F07B
:1042A00028C001F029C002F02AC003F02C6A2D6A50
:1042B0002E6A3F0E2F6E7EEC27F04CEC29F029C0C1
:1042C0000AF7EEC001F0006A0001ED510701002479
:1042D000006F000E0120016F1200ECC003F7F039EF
:1042E0000F0B0F0B0701046F0701065170E0066BFF
:1042F0006DEF1BF00701055107E0100E0001EC15F2
:1043000003E10701010E066F0001EC390F0B010BF1
:104310000701056F0001EC510701075D05E1000190
:10432000ED510701085D02E08DEC1BF0ECC007F7D2
:10433000EDC008F7800E070107151BE107011451B6
:1043400015111611171115E1070110511111121154
:1043500013110FE010C714F711C715F712C716F79E
:1043600013C717F707011407000E155B165B175BE1
:104370000ED0800E070107152AE007011451151110
:104380001611171124E0146B156B166B176B8DEF5C
:104390001BF0ECC02AF7EDC02BF7F1C02CF7120090
:1043A000FC6B070EFC5D13E2C3D9FC51B7D9F9D7FA
:1043B000FC6B070EFC5D0BE2BBD9070EFC25AED9EA
:1043C000F8D7ECC026F7EDC027F7EEC028F71200AB
:1043D000D9CFE6FFE1CFD9FFE6520F0E0F015515F9
:1043E0000001EA6F56CFEBF057CFECF058CFEDF06D
:1043F00059CFEEF05ACFEFF05BCFF0F05CCFF1F099
:104400005DCFF2F050CFDFFF0F01509F070EDF149A
:10441000040835E1020E0001EB5D01E088D0000EDA
:104420000501E76EF119E8AE02D0F13503D0E7508F
:10443000D880F15501E37BD0800E0701071501E11B
:1044400076D00001ED5107010A5D71E0EBC0F3F099
:10445000ECC0F4F00AC7F5F0F00E0001EE15F66FAF
:10446000EFC0F7F0F0C0F8F0F1C0F9F0F2C0FAF0E8
:104470000F0140B7FDD70BD9F1C5FBF058D0070E9F
:10448000DF1402081EE10001EE51000804E2EDC055
:1044900031F7EEC02DF7F251000804E2F1C032F717
:1044A000F2C02EF7EC51000804E2EBC033F7ECC089
:1044B0002FF7F05100083BE2EFC034F7F0C030F7BF
:1044C00036D00001EB51FA0A32E1EEC000F0016A89
:1044D000026A036AEFC004F0056A066A076A080EFA
:1044E0001F0B02E006D9FEE145D9F0C008F0096AC9
:1044F0000A6A0B6A100E1F0B02E002D9FEE100509F
:1045000008240701376F01500920386F02500A2034
:10451000396F03500B203A6FF2C001F0006A0001BE
:10452000F15107010024356F000E0120366FE5526E
:1045300018D112000FD90B0EE66E69EC33F0E5527C
:10454000F3CF00F0F4CF01F0F3CFE6FFF4CFE6FFB6
:10455000EEEC35F0E552E552F3CFDEFFF4CFDDFFB0
:104560000401F95112E1EDD801500318E8AE02D070
:10457000033404D00250005C0350015806E26DEC95
:104580001BF00401010EF96F15D00401F90512E1C9
:10459000D8D8020E0226000E032203500118E8AEFE
:1045A00002D0013404D00050025C0150035802E2F2
:1045B0000401F96B020EE15C02E2E16AE552E16E90
:1045C000D0D0120012000401FA2B000EFB23B1DF41
:1045D000CCD83C0E2D6E2E6A7FD801E1ABDFC5D85A
:1045E0002C0E2D6E010E2E6E77D801E1EADFBDD8BC
:1045F000580E2D6E020E2E6E6FD806E1E3DF580EB8
:104600000401FA5F020EFB5B12000001FB5102E1A4
:10461000F1C5FBF012000001FB5101E11200020E96
:10462000F35D19E1000E0501E76EF119E8AE02D065
:10463000F13503D0E750D880F1550DE2800E070127
:10464000071509E0010EE66E41EC39F0E5520F0165
:1046500040B7FDD71CD80001FB0712008BD8F1C072
:1046600008F0096A0A6A0B6A100E1F0B1200085044
:104670000026095001220A5002220B500322F2C0E8
:104680000CF00D6A0E6A0F6A180E1F0B1200406BB9
:10469000426B800E416FF3C046FFF4C047FFF5C088
:1046A00048FFF6C049FFF7C04AFFF8C04BFFF9C00A
:1046B0004CFFFAC04DFF080E456F406F1200EFC06F
:1046C00000F0016A026A036AF0C004F0056A066A33
:1046D000076A080E1F0B1200FAC428F0FBC429F069
:1046E00019EC39F024C000F025C001F02450251049
:1046F0001200D8900436053606360736E806120052
:10470000D890083609360A360B36E8061200D890DB
:104710000C360D360E360F36E8061200EA6A180F10
:10472000E96E070EEA22E552E750EF6EFC2B12000D
:10473000FC29EA6AEB0FE96E000EEA22EF50E66E02
:10474000120007010B51006E016ADECF02F0DDCFCF
:1047500003F01200D9CFE6FFE1CFD9FF020EE12628
:104760001200E552E7CFD9FF1200FAC400F0FBC4F3
:1047700001F01200045000260550012206500222CA
:06478000075003221200A5
:0A478600F6DA06010E0E646F5E0EF7
:104790002DDB17DB56DB06010A0E646F5E0E26DB8F
:1047A000020E0ADBECD2E6DACEDAFDC464F6FEC411
:1047B00065F632EC1BF0CFDAE2D2DCDA030EE1264A
:1047C000C2DA0601000E646F5E0E10DBDF6A200E97
:1047D000DF5C10E2DFCFE6FFE66AFB0E006E5D0EE7
:1047E0009DDAB6DADFCFE6FF69EC33F033DB29DBA5
:1047F000DF2AEDD7B0DA030EE15C02E2E16AE552AE
:10480000E16EBDD2B7DA020ED7DA9DDA0601820E6A
:10481000646F6D0EC7DA3BC7E6FF3CC7E6FF3DC7D6
:10482000E6FF3EC7E6FFE5DA0601F90E646F5D0EAE
:10483000B9DA3FC7E6FF40C7E6FF41C7E6FF42C718
:10484000E6FFD7DA88DA9BD295DA020EE126B4DAEF
:104850007ADA07010451040A15E0070A0EE0020A99
:1048600007E0010A16E10601ED0E646F5D0E0ED041
:104870000601E20E646F5D0E09D00601D90E646F69
:104880005D0E04D00601CA0E646F5D0E656F32ECDA
:104890001BF007010351040A0EE0060A07E0030AB1
:1048A0000FE10601C10E646F5D0E0ED00601AB0E66
:1048B000646F5D0E09D006019D0E646F5D0E04D01D
:1048C00006018C0E646F5D0E91DA06017C0E646F3A
:1048D0005D0E8CDA020EE66EC7DA47DAEF504D084D
:1048E00009E10CC7E6FF0DC7E6FF760E006E5D0E10
:1048F00015DA4CD00CC728F00DC729F04DEC27F085
:1049000027C008F028C009F029C00AF02AC00BF01F
:10491000B60E2C6EF30E2D6ECD0E2E6E3F0E2F6E3C
:1049200067EC28F073EC29F04DEC27F027C004F079
:1049300028C005F029C006F02AC007F02C6A2D6AAD
:104940002E6A3F0E2F6E7EEC27F027C000F028C0A5
:1049500001F029C002F02AC003F027C0E6FF28C0FA
:10496000E6FF29C0E6FF2AC0E6FF700E0C6E5D0E62
:104970000D6E0E6A0CC0E6FFE66E0EC0E6FF41DA71
:1049800004EC37F00F6E090EE15E0F50E1D906011D
:10499000680E646F5D0E2ADA07010B51E66EE66A57
:1049A000630E006E5D0EBAD9D3D9D5D9020EE15C83
:1049B00002E2E16AE552E16EE2D1DCD9080EE126BD
:1049C000FB0EDBCFDEFFDBCFDDFFCFD9EF502CE0DE
:1049D000CCD9EF50200828E0C8D9EFCF00F0600E06
:1049E000E76E0018E8AE02D0003403D0E750D8805C
:1049F000005415E2BAD9EFCF01F07B0EE76E011833
:104A0000E8AE02D0E73402D0E750015C08E2ADD94D
:104A1000EF50E00FE66EA9D9E552E750EF6EDF2ABE
:104A2000010ED3E3DB2AD1D7090EE66EE66A590EF2
:104A3000006E5D0E43D90DE16DD9090E55D901E027
:104A4000B3D0BFD9E66AA8D90401140EFD6F6D0E6C
:104A5000AFD0050EE66EE66A530E006E5D0E2ED9DF
:104A60000DE122D901E0A0D0050ED8D9010EE66EE5
:104A700093D90401410EFD6F6D0E9AD0040EE66EBF
:104A8000E66A4E0E006E5D0E19D905E143D9040E9B
:104A90002BD90CE089D0030EE66EE66A4A0E006E52
:104AA0005D0E0CD906E100D901E07ED08AD9AADEDC
:104AB00080D0050EE66EE66A440E006E5D0EFED8EE
:104AC00005E128D9050E10D90BE06ED0040EE66E74
:104AD000E66A3F0E006E5D0EF1D805E1E5D864E1AF
:104AE00070D9B2DE66D0070EE66EE66A370E006E4B
:104AF0005D0EE4D805E1D8D857E163D95EDE59D020
:104B0000070EE66EE66A2F0E006E5D0ED7D854E1F2
:104B1000CBD84AE1020EDB6E070EF36E030EF3CF25
:104B2000DBFFDB50E76E040EE7CFDBFF040E3DD961
:104B30002FE3200EF36E020EDBCFF4FFF350F45C94
:104B400027E2040E4FD9200803E0040E4BD91DE1E3
:104B5000040E7CD9030E46D92D0807E1030EDB288D
:104B6000B7D8EF5002E1030E71D9030EDB5056D9CE
:104B7000020EDBCFF3FFDB2AF350E66E0DD9040EF5
:104B8000DB2ADB50E76E030ECFD7040EDB2ACED72D
:104B90000401610EFD6F6D0EE4D8E552E552020E80
:104BA000E66E91EC1BF006D00401020EFD6F6D0E57
:104BB000D8D8E552E55271D0080EE66EE66A260EA8
:104BC000006E5D0E7BD84CE16FD859E1080EF36E94
:104BD000050EF3CFDBFFE9D860E3050E03D920080B
:104BE00003E0050EFFD839E1050E30D9080E9FD835
:104BF000CAD8060EF3CFDBFF070EF4CFDBFF060E9D
:104C0000DBCF00F0070EDBCF01F0000E005C000EE2
:104C1000015843E3060EDBCF02F0070EDBCF03F0B3
:104C2000080E025C000E035838E2050EDB507FD8F8
:104C3000010E0026000E0122A6D8F350E66E060EE5
:104C4000DBCFE9FF070EDBCFEAFFF10EE926050E09
:104C5000EA22E552E750EF6E20D0050EDB2ABBD7E3
:104C6000050EE66EE66A200E006E5D0E27D80DE199
:104C70001BD805E1030EE66E91EC1BF00DD004018C
:104C8000020EFD6F6D0E6DD806D0CED89AD8B4EC5A
:104C900011F0E552E552E552E552080EE15C02E200
:104CA000E16AE552E16E6BD0E66A92D88AD8C3D841
:104CB000026E060EE15E025000091200A7D8B4D8B9
:104CC00011EC2FF0036E070EE15E03500009120095
:104CD000E76EFB0EDBCFE9FFFC0EDBCFEAFFE75010
:104CE000E926000EEA221200E76EFB0EDBCF02F08F
:104CF000FC0EDBCF03F0E7500226000E032202C0B9
:104D0000E6FF03C0E6FF97D8046E060EE15E04508E
:104D100000091200010EE66EE8EF26F077D871D890
:104D200004EC37F0036E070EE15E03501200E76EED
:104D3000FB0EDBCF00F0FC0EDBCF01F0E7500026CE
:104D4000000E012212003DD81EDDE552E552120090
:104D500058D821EF27F00601080E646F5E0EF6EFBB
:104D600026F0FE6F2ED8D3EF23F0DECFE9FFDDCFA4
:104D7000EAFF1200D9CFE6FFE1CFD9FF1200E552DA
:104D8000E7CFD9FF120000C0E6FF01C0E6FFEEEC5E
:104D900035F0E552E5521200AEEC33F0E552E55243
:104DA000E552120023D801EF27F0DBCF00F0FA0E16
:104DB000DB28D88000541200E66E18EC32F0E55281
:104DC0001200FD0EDBCFE6FFFE0EDBCFE6FF12008A
:104DD0004BD8DECFE6FFDDCFE6FF0FEC30F0E5523B
:104DE0002AEF27F0DB5074DFEF501200656F32EFCF
:104DF0001BF043EC32F0006E060EE15E0050A8EFAF
:104E000026F0000EE66E060EE66E1200016E026AD5
:104E100000C0E6FFE66E02C0E6FF120088DF00C0B9
:104E2000E6FF01C0E6FF1200FB0EDBCFE6FFFC0E43
:104E3000DBCFE6FF1200DECFE6FFDDCFE6FF1DEFA2
:104E400030F043EC1BF0E552E5521200DB5040DF3E
:104E5000EF6A1200E552F3CF00F0F4CF01F0F3CF88
:104E6000E6FFF4CFE6FF120069EC33F0E552F3CF32
:084E7000DEFFF4CFDDFF1200AC
:084E7800219E05D0219E29AE08
:104E800002D0296C218E29C023F0226A336A326A4B
:104E9000860E246E256AF5EF29F0219E08D0219E0A
:104EA00029AE05D0286C291EE86A2922218E29C046
:104EB00023F028C022F0336A326A8E0E246E256AEF
:104EC000F5EF29F0219E0CD0219E29AE09D0266C49
:104ED000271E281E291EE86A272228222922218E21
:104EE00029C023F028C022F027C033F026C032F0BA
:104EF0009E0E246E256AF5EF29F02F7E216A31EC93
:104F00002AF049EC2AF021B6D9EF29F021A20AD0E3
:104F100021AA03D021BED9EF29F021A4E5EF29F081
:104F2000E2EF29F021AA05D021ACE5EF29F0E2EF6C
:104F300029F021A00AD021A808D021BE04D021A4A4
:104F400002D0EEEF29F0F2EF29F0326A256A2F50F5
:104F50002A5C316E10E327C033F028C022F029C04C
:104F600023F02AC030F02CC027F02DC028F02EC02E
:104F700029F0213A09D02CC033F02DC022F02EC0E8
:104F800023F02FC030F0316C219E21BC218E30C027
:104F900024F021B021EF2AF01A0E316021EF2AF01F
:104FA000246A2A6A21A408D0276C281E291E2A1EDA
:104FB000E86A282229222A2221AC08D0336C221E3A
:104FC000231E241EE86A222223222422266A31522A
:104FD00007E02A342932283227322632312EF9D7F7
:104FE0002750332628502222295023222A502422B7
:104FF00026C032F0219E24AE0BD0326C331E221E0E
:10500000231E241EE86A3322222223222422218EF8
:1050100024A006D0D8802332223233323232302AD2
:1050200030C024F0F5EF29F0216A31EC2AF049EC88
:105030002AF021B6D9EF29F021A205D021BAD9EF63
:1050400029F0E0EF29F021BAECEF29F021A005D0FA
:1050500021B8D9EF29F0ECEF29F021B8E0EF29F0E1
:10506000256A7F0E2A24246EE86A25222F50245EAA
:10507000E86A255A1A0E306E2A6A326A336A226A40
:10508000236A2C50275E2D50285A2E50295A000E84
:105090002A5A09E72C5027262D5028222E50292243
:1050A000000E2A2201D0328AD89027362836293697
:1050B0002A36D8903236333622362336302EE1D790
:1050C000295028102710D8A4328AF5EF29F0216A38
:1050D00031EC2AF049EC2AF021B6D9EF29F021A2CF
:1050E00005D021B8D9EF29F0E0EF29F021AA05D0A9
:1050F00021B0D9EF29F0E0EF29F021B002D021A8AA
:1051000002D0ECEF29F0256A2F502A24246EE86A99
:1051100025227E0E245EE86A255A326A336A226AA4
:10512000236A2E502902F4CF23F0F3CF22F02D5022
:105130002902F3503326F4502222000E23222E504F
:105140002802F3503326F4502222000E23222C5042
:105150002902F3503226F4503322000E2222232259
:105160002D502802F3503226F4503322000E222212
:1051700023222E502702F3503226F4503322000E01
:10518000222223222C502802F4503226000E3322F1
:10519000222223222D502702F4503226000E3322E1
:1051A00022222322F5EF29F0206A2EAEDDEF28F02F
:1051B0002D6C2E1EE86A2E22201E29AEE5EF28F067
:1051C000286C291EE86A2922201E19EC39F029BE14
:1051D000F5EF28F020AE000C286C291EE86A292281
:1051E000246C251EE86A2522000C20BEECEF28F076
:1051F0002188FF0C206AE86A2EAE07EF29F02B6C9D
:105200002C1E2D1E2E1E2C222D222E22201E29AEBB
:1052100012EF29F0266C271E281E291E272228227D
:105220002922201EF5EC38F029BE29EF29F020AE06
:10523000000C266C271E281E291EE86A2722282219
:105240002922226C231E241E251E232224222522ED
:10525000000C20BE19EF29F02188FF0C28C032F085
:1052600028502D02F4CF27F0F3CF26F029502E023C
:10527000F4CF29F0F3CF28F02D02F3502726F45075
:105280002822E86A292232502E02F3502726F450B1
:105290002822E86A2922000C216A31EC2AF021B682
:1052A00056EF29F021A20AD021B403D07F0E296E37
:1052B00019D0800E296E16D0296A14D021B0FCD7DF
:1052C000870E2A60F1D77E0E2A64F6D7860E2A5CF6
:1052D00004E0D89029322A2AF9D721A403D0296CD6
:1052E00029AEEAD71200216A31EC2AF021B67DEF0F
:1052F00029F021A20ED021B405D07F0E296EFF0E19
:10530000286E1FD0800E296E286A1BD0296A286A51
:1053100018D021B0FBD78F0E2A60EDD77E0E2A64FD
:10532000F5D78E0E2A5C05E0D890293228322A2A39
:10533000F8D721A406D0286C291EE86A292229AEB4
:10534000E5D71200216A31EC2AF021B6ACEF29F042
:1053500021A20FD021B407D07F0E296EFF0E286E38
:10536000276E266E25D0800E296E01D0296A000E88
:10537000F6D721B0FBD7266A9F0E2A60EBD77E0EA8
:105380002A64F4D79E0E2A5C07E0D890293228328E
:10539000273226322A2AF6D721A40AD0266C271EC5
:1053A000281E291EE86A27222822292229AEDED7B4
:1053B00012007F0E2A6EFF0E296E286E276E1200D5
:1053C0007F0E21BEFF0E2A6E02D07F0E2A6E800E47
:1053D000296E286A276AF3D721AE04D0800E2A6E80
:1053E000296AF7D72A6A296AF4D723502210331082
:1053F0003210F8E025BEF0D723BE0CD02450251083
:10540000EBE0D89032363336223623362406D8A045
:105410002506F2D72550D4E12428D2E032AE11D0AF
:105420007F0E321402E133A00CD0332AE86A222224
:10543000232207E3D880233222323332242A24283D
:10544000BFE02450C9E033C027F022C028F0233445
:10545000296E24302A6E29322A9E21BE2A8EDFEF41
:1054600029F029362A3602E32184217E06E12180B3
:105470002A6A296A286A276A12002A2803E0D88043
:1054800029321200D890293202E1218212002186AD
:1054900012002E362F3602E3218C217E06E1218870
:1054A0002F6A2E6A2D6A2C6A12002F2803E0D880FA
:1054B0002E321200D8902E32EAE1218A120029C041
:1054C00033F028C032F028502D02F4CF27F0F3CF6C
:1054D00026F029502E02F4CF29F0F3CF28F02D0228
:1054E000F3502726F4502822E86A292232502E024F
:1054F000F3502726F4502822E86A29222EAE85EFA1
:105500002AF03250285E3350295A33AE000C2D5009
:08551000285E2E50295A000C00
:085518006EDACED9E840E8404C
:105520003F0BE5D91BDA010EAFD9EF50F00BE8388D
:105530000F0B006EC1D9030B100DF3500010D7D91B
:10554000E66E010EA8D929DA1BE200500108000E10
:10555000015416E2060E036E53DAC00B03C0E7FFD8
:10556000E75204E0E8427F0BE706FCE1026E010E21
:105570008BD9EF500F0B040DF3500210B8D901D0A6
:105580003D0EE66E020E87D908DA09E200500208E5
:10559000000E015404E234DA3F0BA9D901D03D0ECC
:1055A000E66E030E78D9ECD1CFD9A9D921E28DD9F5
:1055B00001E3DB2AC0D916E1ED5014E1030EE66EDB
:1055C000E66A71D9B4D901E6DFD90AE278D9EDD912
:1055D00001E3DB2A19DADF2A010EF4E3DB2AF2D732
:1055E000DE6ADD6A020EDB2A030EDFE3DB2ADDD78B
:1055F00031DA013420E200500008000E01541BE2B1
:10560000B1D9C7D904E6030E005C000E015804E2CC
:1056100082D9F7E3DB2AF5D702DA89D901E6B4D9D2
:105620000AE24DD9C2D901E3DB2AEED9DF2A010E05
:10563000F4E3DB2AF2D7F90EDBCFE9FFFA0EDBCF7A
:10564000EAFFEF6A040EE15C02E2E16AE552E16E14
:1056500097D17AD954D91BE238D901E3DB2A6BD927
:1056600010E1ED500EE1030EE66EE66A1CD95FD93B
:1056700001E68AD904E2CCD9FAE3DB2AF8D7DE6A5C
:10568000DD6A020EDB2A030EE5E3DB2AE3D7E2D96B
:1056900001341AE200500008000E015415E262D9EC
:1056A00078D904E6030E005C000E015804E233D9F9
:1056B000F7E3DB2AF5D7B3D93AD901E665D904E295
:1056C000A7D9FAE3DB2AF8D7040EE15C02E2E16A2B
:1056D000E552E16E55D18FD9010ED6D8EF380F0BB8
:1056E000006EEAD8040DF350001038D989D9E8408B
:1056F000E8403F0B006E010EC7D8EF38F00B0010EA
:10570000E66E010EC8D8030EBFD8EFCF00F078D9EF
:10571000400DF350C00B0010E66E020EBCD830D125
:105720006AD9070EE126050EDB6A060EDB6AC4D8CD
:1057300001E197D0030EDB6A040EDB6A010EDB6A1F
:10574000020EDB6A3AD9D890015001E61DD94AE22F
:10575000B3D848E0DF6AB0D82FE0DF502DE1FD0E6E
:10576000DBCFE9FFDB2AFE0EDBCFEAFF01E3DB2A1A
:10577000EFCFDFFF2B0EDF5C05E3DF507A0802E39B
:10578000000E01D0010E000902E0000E09D02B0E20
:10579000DF5CF76A2D0FF66E700EF7220800F550E9
:1057A000DF6EDF50D8E0240EDF5C02E1000E02D095
:1057B0003D0EDF5CDF6ECFD77FD80CE0030EDB2A17
:1057C000040E01E3DB2ADF5007E0DF04E66ED5D8E4
:1057D0001BD902D0D2D8EF6A010EDB2A020EB2E347
:1057E000DB2AB0D7D950030FE96EDACFEAFFEE50CB
:1057F000ED109DE0F7D86FDFE552E552E552E55236
:10580000010EDB6A020EDB6AD8D8030EDBCF02F092
:10581000040EDBCF03F00206000E035A01500318FA
:10582000E8AE02D0033404D00250005C03500158AB
:1058300001E37DD701D9F9D8FB0EDBCFE9FFDB2AE5
:10584000FC0EDBCFEAFF01E3DB2ADED8050EDB2A04
:10585000060E01E3DB2A010EDB2A020ED5E3DB2A6A
:10586000D3D7B2D8EF6A050EDBCF00F0060EDBCF40
:1058700001F000C0F3FF01C0F4FF070EE15C02E29B
:10588000E16AE552E16E7CD0E76EDDD8E750E926AB
:10589000000EEA221200E76E97D8E750E926000EC4
:1058A000EA2204EF2DF09ED837DE006E060EE15E90
:1058B0000050DE6ADD6A1200C6D8EF501200DECF5B
:1058C000E9FFDDCFEAFF15EF2DF085D8FD0EDB50A7
:1058D0000024E96EFE0EDB500120EA6EEF50E66E0A
:1058E000DFCFE9FFDF2A010EDBCFEAFF1200F76A04
:1058F000EC0FF66E6F0EF7220800F55012006BD811
:10590000FB0EDBCF02F0FC0EDBCF03F00250005C9D
:10591000035001581200020EDBCFE9FF030EDBCF6C
:10592000EAFF9DD8EF6A020EDB2A030E120092D81E
:10593000D8900150120093D867D8D9CFE9FFDACFB9
:10594000EAFF030EEE18120056D8040EE126DE6AB6
:10595000DD6A020EDB6A030EDB6A1200E66E34D8E3
:1059600004EF2DF0D9CFE9FFDACFEAFF020EEECF38
:10597000DBFF030EEDCFDBFF12005ED82FEF2DF023
:10598000E552E7CFD9FF1200040E005C000E01586B
:10599000120021D8D89001501200F90EDBCF00F090
:1059A000FA0EDBCF01F001341200F90EDBCFE9FF74
:1059B000DB2AFA0EDBCFEAFF1200010EDBCF00F08C
:1059C000020EDBCF01F01200FB0EDBCFE9FFFC0E75
:1059D000DBCFEAFF1200020EDBCF00F0030EDBCFBD
:1059E00001F01200CB0EE66E070EE66EC70EE66EF5
:1059F000070EE66E1200D9CFE6FFE1CFD9FF120005
:105A0000020E42DFEF501200E552E750EF6E120037
:105A100056DF60EC1BF0E552DF2A010E1200DECFEC
:105A2000E6FFDDCFE6FF53EF2CF0CB0EE926070EA5
:105A3000EA22EF50E66E1200010EDBCFE9FF020E04
:105A4000DBCFEAFF1200FD0EDBCFE9FFFE0EDBCF5E
:105A5000EAFF1200DECF00F0DDCF01F01200C70E2A
:085A6000E926070EEA221200FC
:085A68002B434D45204552522D
:105A70004F5200434C4F5345440053454E4420463B
:105A800041494C0044415441204143434550540056
